{"contracts/Policy.sol":{"Policy":{"abi":[{"inputs":[{"internalType":"address","name":"initialOwner","type":"address"},{"internalType":"contract ITreasury","name":"treasuryAddress","type":"address"}],"stateMutability":"nonpayable","type":"constructor"},{"inputs":[],"name":"AlreadyPaid","type":"error"},{"inputs":[],"name":"AlreadyTriggered","type":"error"},{"inputs":[],"name":"EnforcedPause","type":"error"},{"inputs":[],"name":"ExpectedPause","type":"error"},{"inputs":[],"name":"InsufficientFunds","type":"error"},{"inputs":[],"name":"InvalidOracle","type":"error"},{"inputs":[],"name":"NotActive","type":"error"},{"inputs":[],"name":"NotAuthorized","type":"error"},{"inputs":[{"internalType":"address","name":"owner","type":"address"}],"name":"OwnableInvalidOwner","type":"error"},{"inputs":[{"internalType":"address","name":"account","type":"address"}],"name":"OwnableUnauthorizedAccount","type":"error"},{"inputs":[],"name":"PayoutExceedsMax","type":"error"},{"inputs":[],"name":"PayoutRequired","type":"error"},{"inputs":[],"name":"PolicyNotFound","type":"error"},{"inputs":[],"name":"PremiumRequired","type":"error"},{"inputs":[],"name":"ReentrancyGuardReentrantCall","type":"error"},{"anonymous":false,"inputs":[{"indexed":true,"internalType":"bytes32","name":"requestId","type":"bytes32"},{"indexed":false,"internalType":"uint256","name":"value","type":"uint256"}],"name":"OracleFulfilled","type":"event"},{"anonymous":false,"inputs":[{"indexed":true,"internalType":"uint256","name":"policyId","type":"uint256"},{"indexed":true,"internalType":"bytes32","name":"requestId","type":"bytes32"}],"name":"OracleRequested","type":"event"},{"anonymous":false,"inputs":[{"indexed":true,"internalType":"address","name":"previousOwner","type":"address"},{"indexed":true,"internalType":"address","name":"newOwner","type":"address"}],"name":"OwnershipTransferred","type":"event"},{"anonymous":false,"inputs":[{"indexed":false,"internalType":"address","name":"account","type":"address"}],"name":"Paused","type":"event"},{"anonymous":false,"inputs":[{"indexed":true,"internalType":"uint256","name":"policyId","type":"uint256"},{"indexed":true,"internalType":"address","name":"to","type":"address"},{"indexed":false,"internalType":"uint256","name":"amount","type":"uint256"}],"name":"PayoutExecuted","type":"event"},{"anonymous":false,"inputs":[{"indexed":true,"internalType":"uint256","name":"policyId","type":"uint256"}],"name":"PolicyCancelled","type":"event"},{"anonymous":false,"inputs":[{"indexed":true,"internalType":"uint256","name":"policyId","type":"uint256"},{"indexed":true,"internalType":"address","name":"policyholder","type":"address"},{"indexed":false,"internalType":"uint256","name":"premium","type":"uint256"},{"indexed":false,"internalType":"uint256","name":"payout","type":"uint256"}],"name":"PolicyPurchased","type":"event"},{"anonymous":false,"inputs":[{"indexed":true,"internalType":"uint256","name":"policyId","type":"uint256"}],"name":"PolicyTriggered","type":"event"},{"anonymous":false,"inputs":[{"indexed":false,"internalType":"address","name":"account","type":"address"}],"name":"Unpaused","type":"event"},{"inputs":[{"internalType":"uint256","name":"payout","type":"uint256"},{"internalType":"uint256","name":"threshold","type":"uint256"}],"name":"buyPolicy","outputs":[],"stateMutability":"payable","type":"function"},{"inputs":[{"internalType":"bytes32","name":"requestId","type":"bytes32"},{"internalType":"uint256","name":"value","type":"uint256"}],"name":"fulfill","outputs":[],"stateMutability":"nonpayable","type":"function"},{"inputs":[{"internalType":"address","name":"user","type":"address"}],"name":"getPoliciesByUser","outputs":[{"components":[{"internalType":"uint256","name":"id","type":"uint256"},{"internalType":"address","name":"policyholder","type":"address"},{"internalType":"uint256","name":"premium","type":"uint256"},{"internalType":"uint256","name":"payout","type":"uint256"},{"internalType":"uint256","name":"threshold","type":"uint256"},{"internalType":"bool","name":"active","type":"bool"},{"internalType":"bool","name":"triggered","type":"bool"}],"internalType":"struct Policy.PolicyData[]","name":"","type":"tuple[]"}],"stateMutability":"view","type":"function"},{"inputs":[],"name":"maxPayout","outputs":[{"internalType":"uint256","name":"","type":"uint256"}],"stateMutability":"view","type":"function"},{"inputs":[],"name":"nextPolicyId","outputs":[{"internalType":"uint256","name":"","type":"uint256"}],"stateMutability":"view","type":"function"},{"inputs":[],"name":"oracle","outputs":[{"internalType":"address","name":"","type":"address"}],"stateMutability":"view","type":"function"},{"inputs":[],"name":"owner","outputs":[{"internalType":"address","name":"","type":"address"}],"stateMutability":"view","type":"function"},{"inputs":[],"name":"pause","outputs":[],"stateMutability":"nonpayable","type":"function"},{"inputs":[],"name":"paused","outputs":[{"internalType":"bool","name":"","type":"bool"}],"stateMutability":"view","type":"function"},{"inputs":[{"internalType":"uint256","name":"","type":"uint256"}],"name":"payoutExecuted","outputs":[{"internalType":"bool","name":"","type":"bool"}],"stateMutability":"view","type":"function"},{"inputs":[{"internalType":"uint256","name":"","type":"uint256"}],"name":"policies","outputs":[{"internalType":"uint256","name":"id","type":"uint256"},{"internalType":"address","name":"policyholder","type":"address"},{"internalType":"uint256","name":"premium","type":"uint256"},{"internalType":"uint256","name":"payout","type":"uint256"},{"internalType":"uint256","name":"threshold","type":"uint256"},{"internalType":"bool","name":"active","type":"bool"},{"internalType":"bool","name":"triggered","type":"bool"}],"stateMutability":"view","type":"function"},{"inputs":[],"name":"renounceOwnership","outputs":[],"stateMutability":"nonpayable","type":"function"},{"inputs":[{"internalType":"bytes32","name":"","type":"bytes32"}],"name":"requestToPolicy","outputs":[{"internalType":"uint256","name":"","type":"uint256"}],"stateMutability":"view","type":"function"},{"inputs":[{"internalType":"uint256","name":"policyId","type":"uint256"}],"name":"requestTriggerCheck","outputs":[{"internalType":"bytes32","name":"requestId","type":"bytes32"}],"stateMutability":"nonpayable","type":"function"},{"inputs":[{"internalType":"uint256","name":"newMax","type":"uint256"}],"name":"setMaxPayout","outputs":[],"stateMutability":"nonpayable","type":"function"},{"inputs":[{"internalType":"address","name":"oracleAddress","type":"address"}],"name":"setOracle","outputs":[],"stateMutability":"nonpayable","type":"function"},{"inputs":[{"internalType":"uint256","name":"policyId","type":"uint256"}],"name":"terminatePolicy","outputs":[],"stateMutability":"nonpayable","type":"function"},{"inputs":[{"internalType":"address","name":"newOwner","type":"address"}],"name":"transferOwnership","outputs":[],"stateMutability":"nonpayable","type":"function"},{"inputs":[],"name":"treasury","outputs":[{"internalType":"contract ITreasury","name":"","type":"address"}],"stateMutability":"view","type":"function"},{"inputs":[{"internalType":"uint256","name":"policyId","type":"uint256"}],"name":"triggerPolicy","outputs":[],"stateMutability":"nonpayable","type":"function"},{"inputs":[],"name":"unpause","outputs":[],"stateMutability":"nonpayable","type":"function"},{"inputs":[{"internalType":"address","name":"","type":"address"},{"internalType":"uint256","name":"","type":"uint256"}],"name":"userPolicyIds","outputs":[{"internalType":"uint256","name":"","type":"uint256"}],"stateMutability":"view","type":"function"}],"evm":{"bytecode":{"linkReferences":{},"object":"60806040523480156200001157600080fd5b50604051620015de380380620015de833981016040819052620000349162000157565b816001600160a01b0381166200006557604051631e4fbdf760e01b8152600060048201526024015b60405180910390fd5b6200007081620000ee565b50600180556001600160a01b038116620000c15760405162461bcd60e51b8152602060048201526011602482015270151c99585cdd5c9e481c995c5d5a5c9959607a1b60448201526064016200005c565b600780546001600160a01b0319166001600160a01b03929092169190911790555060001960095562000196565b600080546001600160a01b038381166001600160a01b0319831681178455604051919092169283917f8be0079c531659141344cd1fd0a4f28419497f9722a3daafe3b4186f6b6457e09190a35050565b6001600160a01b03811681146200015457600080fd5b50565b600080604083850312156200016b57600080fd5b825162000178816200013e565b60208401519092506200018b816200013e565b809150509250929050565b61143880620001a66000396000f3fe6080604052600436106101355760003560e01c80637dc0d1d0116100ab578063c4e7dc801161006f578063c4e7dc8014610348578063cad0b8db14610375578063d3e894831461038b578063d753975d14610435578063e0176de814610465578063f2fde38b1461047b57600080fd5b80637dc0d1d0146102a85780638456cb59146102c85780638a07938d146102dd5780638da5cb5b1461030a578063b6e283e11461032857600080fd5b806356b4997f116100fd57806356b4997f146101e45780635c975abb146102045780635da2460d1461022857806361d027b31461023b578063715018a6146102735780637adbf9731461028857600080fd5b806320bb428c1461013a5780633587399f1461016d578063377e1cc91461018f5780633f4ba83a146101af5780634357855e146101c4575b600080fd5b34801561014657600080fd5b5061015a610155366004611243565b61049b565b6040519081526020015b60405180910390f35b34801561017957600080fd5b5061018d610188366004611243565b610560565b005b34801561019b57600080fd5b5061018d6101aa366004611243565b610695565b3480156101bb57600080fd5b5061018d6107ab565b3480156101d057600080fd5b5061018d6101df36600461125c565b6107bd565b3480156101f057600080fd5b5061018d6101ff366004611243565b610912565b34801561021057600080fd5b5060025460ff165b6040519015158152602001610164565b61018d61023636600461125c565b610962565b34801561024757600080fd5b5060075461025b906001600160a01b031681565b6040516001600160a01b039091168152602001610164565b34801561027f57600080fd5b5061018d610bbd565b34801561029457600080fd5b5061018d6102a336600461129a565b610bcf565b3480156102b457600080fd5b5060085461025b906001600160a01b031681565b3480156102d457600080fd5b5061018d610c20565b3480156102e957600080fd5b5061015a6102f8366004611243565b600a6020526000908152604090205481565b34801561031657600080fd5b506000546001600160a01b031661025b565b34801561033457600080fd5b5061015a6103433660046112bc565b610c30565b34801561035457600080fd5b5061036861036336600461129a565b610c61565b60405161016491906112e6565b34801561038157600080fd5b5061015a60065481565b34801561039757600080fd5b506103f46103a6366004611243565b600360208190526000918252604090912080546001820154600283015493830154600484015460059094015492946001600160a01b0390921693919290919060ff8082169161010090041687565b604080519788526001600160a01b0390961660208801529486019390935260608501919091526080840152151560a0830152151560c082015260e001610164565b34801561044157600080fd5b50610218610450366004611243565b60056020526000908152604090205460ff1681565b34801561047157600080fd5b5061015a60095481565b34801561048757600080fd5b5061018d61049636600461129a565b610df1565b60006104a5610e2f565b6000828152600360205260409020600101546001600160a01b03166104dd5760405163720caa4f60e01b815260040160405180910390fd5b6040805142602082015290810183905233606090811b6bffffffffffffffffffffffff19169082015260740160408051601f1981840301815282825280516020918201206000818152600a909252918120859055909250829184917f5eb36e752f1c46a982d3921ca5bd95fc59f92744f4e7c5554869013838673a3691a3919050565b610568610e2f565b600081815260036020526040902060018101546001600160a01b03166105a15760405163720caa4f60e01b815260040160405180910390fd5b600581015460ff166105c657604051634065aaf160e11b815260040160405180910390fd5b6005810154610100900460ff16156105f1576040516346b8055b60e11b815260040160405180910390fd5b60058101805460ff19169055600754600382015460405163bff8a36d60e01b81526001600160a01b039092169163bff8a36d916106349160040190815260200190565b600060405180830381600087803b15801561064e57600080fd5b505af1158015610662573d6000803e3d6000fd5b50506040518492507fbb1ae509b65d9486a686f3f1b0435353031b5607109dc80aa4d063887e10f3e89150600090a25050565b6000546001600160a01b031633148015906106bb57506008546001600160a01b03163314155b156106d95760405163ea8e4eb560e01b815260040160405180910390fd5b600081815260036020526040902060018101546001600160a01b03166107125760405163720caa4f60e01b815260040160405180910390fd5b600581015460ff1661073757604051634065aaf160e11b815260040160405180910390fd5b6005810154610100900460ff1615610762576040516346b8055b60e11b815260040160405180910390fd5b60058101805461ff00191661010017905560405182907f5d8d8e7ad8feb4bd333fe6788875531690f333312fc805e7520bdfd01384e28590600090a26107a782610e5c565b5050565b6107b3610e2f565b6107bb6110f3565b565b6008546001600160a01b031633146107e85760405163ea8e4eb560e01b815260040160405180910390fd5b6000828152600a60209081526040808320548084526003909252909120600101546001600160a01b031661082f5760405163720caa4f60e01b815260040160405180910390fd5b60008181526005602052604090205460ff161561085f57604051630d70a0e360e41b815260040160405180910390fd5b827f6b58f50ba647121ec500714ba063e916c8251da27ede7485971b6fe27f184c9e8360405161089191815260200190565b60405180910390a260008181526003602052604090206004015482106108ff57600081815260036020526040808220600501805461ff0019166101001790555182917f5d8d8e7ad8feb4bd333fe6788875531690f333312fc805e7520bdfd01384e28591a26108ff81610e5c565b50506000908152600a6020526040812055565b61091a610e2f565b6000811161095d5760405162461bcd60e51b815260206004820152600b60248201526a06d61785061796f75743d360ac1b60448201526064015b60405180910390fd5b600955565b61096a611145565b3460000361098b57604051637e1e0e5b60e01b815260040160405180910390fd5b816000036109ac5760405163373d696f60e11b815260040160405180910390fd5b6009548211156109cf57604051630820c43d60e11b815260040160405180910390fd5b600680546040805160e08101825282815233602080830182815234848601908152606085018a8152608086018a8152600160a08801818152600060c08a018181528c82526003808a528c83209b518c5597518b850180546001600160a01b0319166001600160a01b03909216919091179055955160028b01559351958901959095559051600480890191909155935160059097018054935161ffff1990941697151561ff001916979097176101009315159390930292909217909555928452815292822080548083018255908352928220909201839055835492939192610ab790849061138b565b909155505060075460408051630d0e30db60e41b815290516001600160a01b039092169163d0e30db0913491600480830192600092919082900301818588803b158015610b0357600080fd5b505af1158015610b17573d6000803e3d6000fd5b5050600754604051630fdfbe1f60e11b8152600481018890526001600160a01b039091169350631fbf7c3e92506024019050600060405180830381600087803b158015610b6357600080fd5b505af1158015610b77573d6000803e3d6000fd5b505060408051348152602081018790523393508492507f86175db98187e6ddfe37c7302752dae1b1287aa583f43b5b6c7038d991c8dc57910160405180910390a3505050565b610bc5610e2f565b6107bb6000611169565b610bd7610e2f565b6001600160a01b038116610bfe57604051639589a27d60e01b815260040160405180910390fd5b600880546001600160a01b0319166001600160a01b0392909216919091179055565b610c28610e2f565b6107bb6111b9565b60046020528160005260406000208181548110610c4c57600080fd5b90600052602060002001600091509150505481565b6001600160a01b038116600090815260046020526040812080546060928167ffffffffffffffff811115610c9757610c976113a4565b604051908082528060200260200182016040528015610d1557816020015b610d026040518060e001604052806000815260200160006001600160a01b031681526020016000815260200160008152602001600081526020016000151581526020016000151581525090565b815260200190600190039081610cb55790505b50905060005b82811015610de85760036000858381548110610d3957610d396113ba565b600091825260208083209091015483528281019390935260409182019020815160e0810183528154815260018201546001600160a01b03169381019390935260028101549183019190915260038101546060830152600481015460808301526005015460ff808216151560a084015261010090910416151560c08201528251839083908110610dca57610dca6113ba565b60200260200101819052508080610de0906113d0565b915050610d1b565b50949350505050565b610df9610e2f565b6001600160a01b038116610e2357604051631e4fbdf760e01b815260006004820152602401610954565b610e2c81611169565b50565b6000546001600160a01b031633146107bb5760405163118cdaa760e01b8152336004820152602401610954565b610e646111f6565b600081815260036020526040902060018101546001600160a01b0316610e9d5760405163720caa4f60e01b815260040160405180910390fd5b600581015460ff168015610eba57506005810154610100900460ff165b610ed757604051634065aaf160e11b815260040160405180910390fd5b60008281526005602052604090205460ff1615610f0757604051630d70a0e360e41b815260040160405180910390fd5b8060030154600760009054906101000a90046001600160a01b03166001600160a01b03166312065fe06040518163ffffffff1660e01b8152600401602060405180830381865afa158015610f5f573d6000803e3d6000fd5b505050506040513d601f19601f82011682018060405250810190610f8391906113e9565b1015610fa25760405163356680b760e01b815260040160405180910390fd5b6005818101805460ff199081169091556000848152602092909252604091829020805490911660011790556007546003830154915163bff8a36d60e01b815260048101929092526001600160a01b03169063bff8a36d90602401600060405180830381600087803b15801561101657600080fd5b505af115801561102a573d6000803e3d6000fd5b505060075460018401546003850154604051630ed1218b60e31b81526001600160a01b0392831660048201526024810191909152911692506376890c589150604401600060405180830381600087803b15801561108657600080fd5b505af115801561109a573d6000803e3d6000fd5b50505050600181015460038201546040519081526001600160a01b039091169083907fbeaa99d72a600712e4656a7da04b2cabe31fb50fbf8f5b5f96513b0a4f495c1a9060200160405180910390a350610e2c60018055565b6110fb611220565b6002805460ff191690557f5db9ee0a495bf2e6ff9c91a7834c1ba4fdd244a5e8aa4e537bd38aeae4b073aa335b6040516001600160a01b03909116815260200160405180910390a1565b60025460ff16156107bb5760405163d93c066560e01b815260040160405180910390fd5b600080546001600160a01b038381166001600160a01b0319831681178455604051919092169283917f8be0079c531659141344cd1fd0a4f28419497f9722a3daafe3b4186f6b6457e09190a35050565b6111c1611145565b6002805460ff191660011790557f62e78cea01bee320cd4e420270b5ea74000d11b0c9f74754ebdbfc544b05a2586111283390565b60026001540361121957604051633ee5aeb560e01b815260040160405180910390fd5b6002600155565b60025460ff166107bb57604051638dfc202b60e01b815260040160405180910390fd5b60006020828403121561125557600080fd5b5035919050565b6000806040838503121561126f57600080fd5b50508035926020909101359150565b80356001600160a01b038116811461129557600080fd5b919050565b6000602082840312156112ac57600080fd5b6112b58261127e565b9392505050565b600080604083850312156112cf57600080fd5b6112d88361127e565b946020939093013593505050565b602080825282518282018190526000919060409081850190868401855b8281101561136857815180518552868101516001600160a01b0316878601528581015186860152606080820151908601526080808201519086015260a08082015115159086015260c09081015115159085015260e09093019290850190600101611303565b5091979650505050505050565b634e487b7160e01b600052601160045260246000fd5b8082018082111561139e5761139e611375565b92915050565b634e487b7160e01b600052604160045260246000fd5b634e487b7160e01b600052603260045260246000fd5b6000600182016113e2576113e2611375565b5060010190565b6000602082840312156113fb57600080fd5b505191905056fea2646970667358221220df7ceecbe271bbc3f78b1d555a84652738b8dca9ef86e579dd52a3453c47a82364736f6c63430008140033","opcodes":"PUSH1 0x80 PUSH1 0x40 MSTORE CALLVALUE DUP1 ISZERO PUSH3 0x11 JUMPI PUSH1 0x0 DUP1 REVERT JUMPDEST POP PUSH1 0x40 MLOAD PUSH3 0x15DE CODESIZE SUB DUP1 PUSH3 0x15DE DUP4 CODECOPY DUP2 ADD PUSH1 0x40 DUP2 SWAP1 MSTORE PUSH3 0x34 SWAP2 PUSH3 0x157 JUMP JUMPDEST DUP2 PUSH1 0x1 PUSH1 0x1 PUSH1 0xA0 SHL SUB DUP2 AND PUSH3 0x65 JUMPI PUSH1 0x40 MLOAD PUSH4 0x1E4FBDF7 PUSH1 0xE0 SHL DUP2 MSTORE PUSH1 0x0 PUSH1 0x4 DUP3 ADD MSTORE PUSH1 0x24 ADD JUMPDEST PUSH1 0x40 MLOAD DUP1 SWAP2 SUB SWAP1 REVERT JUMPDEST PUSH3 0x70 DUP2 PUSH3 0xEE JUMP JUMPDEST POP PUSH1 0x1 DUP1 SSTORE PUSH1 0x1 PUSH1 0x1 PUSH1 0xA0 SHL SUB DUP2 AND PUSH3 0xC1 JUMPI PUSH1 0x40 MLOAD PUSH3 0x461BCD PUSH1 0xE5 SHL DUP2 MSTORE PUSH1 0x20 PUSH1 0x4 DUP3 ADD MSTORE PUSH1 0x11 PUSH1 0x24 DUP3 ADD MSTORE PUSH17 0x151C99585CDD5C9E481C995C5D5A5C9959 PUSH1 0x7A SHL PUSH1 0x44 DUP3 ADD MSTORE PUSH1 0x64 ADD PUSH3 0x5C JUMP JUMPDEST PUSH1 0x7 DUP1 SLOAD PUSH1 0x1 PUSH1 0x1 PUSH1 0xA0 SHL SUB NOT AND PUSH1 0x1 PUSH1 0x1 PUSH1 0xA0 SHL SUB SWAP3 SWAP1 SWAP3 AND SWAP2 SWAP1 SWAP2 OR SWAP1 SSTORE POP PUSH1 0x0 NOT PUSH1 0x9 SSTORE PUSH3 0x196 JUMP JUMPDEST PUSH1 0x0 DUP1 SLOAD PUSH1 0x1 PUSH1 0x1 PUSH1 0xA0 SHL SUB DUP4 DUP2 AND PUSH1 0x1 PUSH1 0x1 PUSH1 0xA0 SHL SUB NOT DUP4 AND DUP2 OR DUP5 SSTORE PUSH1 0x40 MLOAD SWAP2 SWAP1 SWAP3 AND SWAP3 DUP4 SWAP2 PUSH32 0x8BE0079C531659141344CD1FD0A4F28419497F9722A3DAAFE3B4186F6B6457E0 SWAP2 SWAP1 LOG3 POP POP JUMP JUMPDEST PUSH1 0x1 PUSH1 0x1 PUSH1 0xA0 SHL SUB DUP2 AND DUP2 EQ PUSH3 0x154 JUMPI PUSH1 0x0 DUP1 REVERT JUMPDEST POP JUMP JUMPDEST PUSH1 0x0 DUP1 PUSH1 0x40 DUP4 DUP6 SUB SLT ISZERO PUSH3 0x16B JUMPI PUSH1 0x0 DUP1 REVERT JUMPDEST DUP3 MLOAD PUSH3 0x178 DUP2 PUSH3 0x13E JUMP JUMPDEST PUSH1 0x20 DUP5 ADD MLOAD SWAP1 SWAP3 POP PUSH3 0x18B DUP2 PUSH3 0x13E JUMP JUMPDEST DUP1 SWAP2 POP POP SWAP3 POP SWAP3 SWAP1 POP JUMP JUMPDEST PUSH2 0x1438 DUP1 PUSH3 0x1A6 PUSH1 0x0 CODECOPY PUSH1 0x0 RETURN INVALID PUSH1 0x80 PUSH1 0x40 MSTORE PUSH1 0x4 CALLDATASIZE LT PUSH2 0x135 JUMPI PUSH1 0x0 CALLDATALOAD PUSH1 0xE0 SHR DUP1 PUSH4 0x7DC0D1D0 GT PUSH2 0xAB JUMPI DUP1 PUSH4 0xC4E7DC80 GT PUSH2 0x6F JUMPI DUP1 PUSH4 0xC4E7DC80 EQ PUSH2 0x348 JUMPI DUP1 PUSH4 0xCAD0B8DB EQ PUSH2 0x375 JUMPI DUP1 PUSH4 0xD3E89483 EQ PUSH2 0x38B JUMPI DUP1 PUSH4 0xD753975D EQ PUSH2 0x435 JUMPI DUP1 PUSH4 0xE0176DE8 EQ PUSH2 0x465 JUMPI DUP1 PUSH4 0xF2FDE38B EQ PUSH2 0x47B JUMPI PUSH1 0x0 DUP1 REVERT JUMPDEST DUP1 PUSH4 0x7DC0D1D0 EQ PUSH2 0x2A8 JUMPI DUP1 PUSH4 0x8456CB59 EQ PUSH2 0x2C8 JUMPI DUP1 PUSH4 0x8A07938D EQ PUSH2 0x2DD JUMPI DUP1 PUSH4 0x8DA5CB5B EQ PUSH2 0x30A JUMPI DUP1 PUSH4 0xB6E283E1 EQ PUSH2 0x328 JUMPI PUSH1 0x0 DUP1 REVERT JUMPDEST DUP1 PUSH4 0x56B4997F GT PUSH2 0xFD JUMPI DUP1 PUSH4 0x56B4997F EQ PUSH2 0x1E4 JUMPI DUP1 PUSH4 0x5C975ABB EQ PUSH2 0x204 JUMPI DUP1 PUSH4 0x5DA2460D EQ PUSH2 0x228 JUMPI DUP1 PUSH4 0x61D027B3 EQ PUSH2 0x23B JUMPI DUP1 PUSH4 0x715018A6 EQ PUSH2 0x273 JUMPI DUP1 PUSH4 0x7ADBF973 EQ PUSH2 0x288 JUMPI PUSH1 0x0 DUP1 REVERT JUMPDEST DUP1 PUSH4 0x20BB428C EQ PUSH2 0x13A JUMPI DUP1 PUSH4 0x3587399F EQ PUSH2 0x16D JUMPI DUP1 PUSH4 0x377E1CC9 EQ PUSH2 0x18F JUMPI DUP1 PUSH4 0x3F4BA83A EQ PUSH2 0x1AF JUMPI DUP1 PUSH4 0x4357855E EQ PUSH2 0x1C4 JUMPI JUMPDEST PUSH1 0x0 DUP1 REVERT JUMPDEST CALLVALUE DUP1 ISZERO PUSH2 0x146 JUMPI PUSH1 0x0 DUP1 REVERT JUMPDEST POP PUSH2 0x15A PUSH2 0x155 CALLDATASIZE PUSH1 0x4 PUSH2 0x1243 JUMP JUMPDEST PUSH2 0x49B JUMP JUMPDEST PUSH1 0x40 MLOAD SWAP1 DUP2 MSTORE PUSH1 0x20 ADD JUMPDEST PUSH1 0x40 MLOAD DUP1 SWAP2 SUB SWAP1 RETURN JUMPDEST CALLVALUE DUP1 ISZERO PUSH2 0x179 JUMPI PUSH1 0x0 DUP1 REVERT JUMPDEST POP PUSH2 0x18D PUSH2 0x188 CALLDATASIZE PUSH1 0x4 PUSH2 0x1243 JUMP JUMPDEST PUSH2 0x560 JUMP JUMPDEST STOP JUMPDEST CALLVALUE DUP1 ISZERO PUSH2 0x19B JUMPI PUSH1 0x0 DUP1 REVERT JUMPDEST POP PUSH2 0x18D PUSH2 0x1AA CALLDATASIZE PUSH1 0x4 PUSH2 0x1243 JUMP JUMPDEST PUSH2 0x695 JUMP JUMPDEST CALLVALUE DUP1 ISZERO PUSH2 0x1BB JUMPI PUSH1 0x0 DUP1 REVERT JUMPDEST POP PUSH2 0x18D PUSH2 0x7AB JUMP JUMPDEST CALLVALUE DUP1 ISZERO PUSH2 0x1D0 JUMPI PUSH1 0x0 DUP1 REVERT JUMPDEST POP PUSH2 0x18D PUSH2 0x1DF CALLDATASIZE PUSH1 0x4 PUSH2 0x125C JUMP JUMPDEST PUSH2 0x7BD JUMP JUMPDEST CALLVALUE DUP1 ISZERO PUSH2 0x1F0 JUMPI PUSH1 0x0 DUP1 REVERT JUMPDEST POP PUSH2 0x18D PUSH2 0x1FF CALLDATASIZE PUSH1 0x4 PUSH2 0x1243 JUMP JUMPDEST PUSH2 0x912 JUMP JUMPDEST CALLVALUE DUP1 ISZERO PUSH2 0x210 JUMPI PUSH1 0x0 DUP1 REVERT JUMPDEST POP PUSH1 0x2 SLOAD PUSH1 0xFF AND JUMPDEST PUSH1 0x40 MLOAD SWAP1 ISZERO ISZERO DUP2 MSTORE PUSH1 0x20 ADD PUSH2 0x164 JUMP JUMPDEST PUSH2 0x18D PUSH2 0x236 CALLDATASIZE PUSH1 0x4 PUSH2 0x125C JUMP JUMPDEST PUSH2 0x962 JUMP JUMPDEST CALLVALUE DUP1 ISZERO PUSH2 0x247 JUMPI PUSH1 0x0 DUP1 REVERT JUMPDEST POP PUSH1 0x7 SLOAD PUSH2 0x25B SWAP1 PUSH1 0x1 PUSH1 0x1 PUSH1 0xA0 SHL SUB AND DUP2 JUMP JUMPDEST PUSH1 0x40 MLOAD PUSH1 0x1 PUSH1 0x1 PUSH1 0xA0 SHL SUB SWAP1 SWAP2 AND DUP2 MSTORE PUSH1 0x20 ADD PUSH2 0x164 JUMP JUMPDEST CALLVALUE DUP1 ISZERO PUSH2 0x27F JUMPI PUSH1 0x0 DUP1 REVERT JUMPDEST POP PUSH2 0x18D PUSH2 0xBBD JUMP JUMPDEST CALLVALUE DUP1 ISZERO PUSH2 0x294 JUMPI PUSH1 0x0 DUP1 REVERT JUMPDEST POP PUSH2 0x18D PUSH2 0x2A3 CALLDATASIZE PUSH1 0x4 PUSH2 0x129A JUMP JUMPDEST PUSH2 0xBCF JUMP JUMPDEST CALLVALUE DUP1 ISZERO PUSH2 0x2B4 JUMPI PUSH1 0x0 DUP1 REVERT JUMPDEST POP PUSH1 0x8 SLOAD PUSH2 0x25B SWAP1 PUSH1 0x1 PUSH1 0x1 PUSH1 0xA0 SHL SUB AND DUP2 JUMP JUMPDEST CALLVALUE DUP1 ISZERO PUSH2 0x2D4 JUMPI PUSH1 0x0 DUP1 REVERT JUMPDEST POP PUSH2 0x18D PUSH2 0xC20 JUMP JUMPDEST CALLVALUE DUP1 ISZERO PUSH2 0x2E9 JUMPI PUSH1 0x0 DUP1 REVERT JUMPDEST POP PUSH2 0x15A PUSH2 0x2F8 CALLDATASIZE PUSH1 0x4 PUSH2 0x1243 JUMP JUMPDEST PUSH1 0xA PUSH1 0x20 MSTORE PUSH1 0x0 SWAP1 DUP2 MSTORE PUSH1 0x40 SWAP1 KECCAK256 SLOAD DUP2 JUMP JUMPDEST CALLVALUE DUP1 ISZERO PUSH2 0x316 JUMPI PUSH1 0x0 DUP1 REVERT JUMPDEST POP PUSH1 0x0 SLOAD PUSH1 0x1 PUSH1 0x1 PUSH1 0xA0 SHL SUB AND PUSH2 0x25B JUMP JUMPDEST CALLVALUE DUP1 ISZERO PUSH2 0x334 JUMPI PUSH1 0x0 DUP1 REVERT JUMPDEST POP PUSH2 0x15A PUSH2 0x343 CALLDATASIZE PUSH1 0x4 PUSH2 0x12BC JUMP JUMPDEST PUSH2 0xC30 JUMP JUMPDEST CALLVALUE DUP1 ISZERO PUSH2 0x354 JUMPI PUSH1 0x0 DUP1 REVERT JUMPDEST POP PUSH2 0x368 PUSH2 0x363 CALLDATASIZE PUSH1 0x4 PUSH2 0x129A JUMP JUMPDEST PUSH2 0xC61 JUMP JUMPDEST PUSH1 0x40 MLOAD PUSH2 0x164 SWAP2 SWAP1 PUSH2 0x12E6 JUMP JUMPDEST CALLVALUE DUP1 ISZERO PUSH2 0x381 JUMPI PUSH1 0x0 DUP1 REVERT JUMPDEST POP PUSH2 0x15A PUSH1 0x6 SLOAD DUP2 JUMP JUMPDEST CALLVALUE DUP1 ISZERO PUSH2 0x397 JUMPI PUSH1 0x0 DUP1 REVERT JUMPDEST POP PUSH2 0x3F4 PUSH2 0x3A6 CALLDATASIZE PUSH1 0x4 PUSH2 0x1243 JUMP JUMPDEST PUSH1 0x3 PUSH1 0x20 DUP2 SWAP1 MSTORE PUSH1 0x0 SWAP2 DUP3 MSTORE PUSH1 0x40 SWAP1 SWAP2 KECCAK256 DUP1 SLOAD PUSH1 0x1 DUP3 ADD SLOAD PUSH1 0x2 DUP4 ADD SLOAD SWAP4 DUP4 ADD SLOAD PUSH1 0x4 DUP5 ADD SLOAD PUSH1 0x5 SWAP1 SWAP5 ADD SLOAD SWAP3 SWAP5 PUSH1 0x1 PUSH1 0x1 PUSH1 0xA0 SHL SUB SWAP1 SWAP3 AND SWAP4 SWAP2 SWAP3 SWAP1 SWAP2 SWAP1 PUSH1 0xFF DUP1 DUP3 AND SWAP2 PUSH2 0x100 SWAP1 DIV AND DUP8 JUMP JUMPDEST PUSH1 0x40 DUP1 MLOAD SWAP8 DUP9 MSTORE PUSH1 0x1 PUSH1 0x1 PUSH1 0xA0 SHL SUB SWAP1 SWAP7 AND PUSH1 0x20 DUP9 ADD MSTORE SWAP5 DUP7 ADD SWAP4 SWAP1 SWAP4 MSTORE PUSH1 0x60 DUP6 ADD SWAP2 SWAP1 SWAP2 MSTORE PUSH1 0x80 DUP5 ADD MSTORE ISZERO ISZERO PUSH1 0xA0 DUP4 ADD MSTORE ISZERO ISZERO PUSH1 0xC0 DUP3 ADD MSTORE PUSH1 0xE0 ADD PUSH2 0x164 JUMP JUMPDEST CALLVALUE DUP1 ISZERO PUSH2 0x441 JUMPI PUSH1 0x0 DUP1 REVERT JUMPDEST POP PUSH2 0x218 PUSH2 0x450 CALLDATASIZE PUSH1 0x4 PUSH2 0x1243 JUMP JUMPDEST PUSH1 0x5 PUSH1 0x20 MSTORE PUSH1 0x0 SWAP1 DUP2 MSTORE PUSH1 0x40 SWAP1 KECCAK256 SLOAD PUSH1 0xFF AND DUP2 JUMP JUMPDEST CALLVALUE DUP1 ISZERO PUSH2 0x471 JUMPI PUSH1 0x0 DUP1 REVERT JUMPDEST POP PUSH2 0x15A PUSH1 0x9 SLOAD DUP2 JUMP JUMPDEST CALLVALUE DUP1 ISZERO PUSH2 0x487 JUMPI PUSH1 0x0 DUP1 REVERT JUMPDEST POP PUSH2 0x18D PUSH2 0x496 CALLDATASIZE PUSH1 0x4 PUSH2 0x129A JUMP JUMPDEST PUSH2 0xDF1 JUMP JUMPDEST PUSH1 0x0 PUSH2 0x4A5 PUSH2 0xE2F JUMP JUMPDEST PUSH1 0x0 DUP3 DUP2 MSTORE PUSH1 0x3 PUSH1 0x20 MSTORE PUSH1 0x40 SWAP1 KECCAK256 PUSH1 0x1 ADD SLOAD PUSH1 0x1 PUSH1 0x1 PUSH1 0xA0 SHL SUB AND PUSH2 0x4DD JUMPI PUSH1 0x40 MLOAD PUSH4 0x720CAA4F PUSH1 0xE0 SHL DUP2 MSTORE PUSH1 0x4 ADD PUSH1 0x40 MLOAD DUP1 SWAP2 SUB SWAP1 REVERT JUMPDEST PUSH1 0x40 DUP1 MLOAD TIMESTAMP PUSH1 0x20 DUP3 ADD MSTORE SWAP1 DUP2 ADD DUP4 SWAP1 MSTORE CALLER PUSH1 0x60 SWAP1 DUP2 SHL PUSH12 0xFFFFFFFFFFFFFFFFFFFFFFFF NOT AND SWAP1 DUP3 ADD MSTORE PUSH1 0x74 ADD PUSH1 0x40 DUP1 MLOAD PUSH1 0x1F NOT DUP2 DUP5 SUB ADD DUP2 MSTORE DUP3 DUP3 MSTORE DUP1 MLOAD PUSH1 0x20 SWAP2 DUP3 ADD KECCAK256 PUSH1 0x0 DUP2 DUP2 MSTORE PUSH1 0xA SWAP1 SWAP3 MSTORE SWAP2 DUP2 KECCAK256 DUP6 SWAP1 SSTORE SWAP1 SWAP3 POP DUP3 SWAP2 DUP5 SWAP2 PUSH32 0x5EB36E752F1C46A982D3921CA5BD95FC59F92744F4E7C5554869013838673A36 SWAP2 LOG3 SWAP2 SWAP1 POP JUMP JUMPDEST PUSH2 0x568 PUSH2 0xE2F JUMP JUMPDEST PUSH1 0x0 DUP2 DUP2 MSTORE PUSH1 0x3 PUSH1 0x20 MSTORE PUSH1 0x40 SWAP1 KECCAK256 PUSH1 0x1 DUP2 ADD SLOAD PUSH1 0x1 PUSH1 0x1 PUSH1 0xA0 SHL SUB AND PUSH2 0x5A1 JUMPI PUSH1 0x40 MLOAD PUSH4 0x720CAA4F PUSH1 0xE0 SHL DUP2 MSTORE PUSH1 0x4 ADD PUSH1 0x40 MLOAD DUP1 SWAP2 SUB SWAP1 REVERT JUMPDEST PUSH1 0x5 DUP2 ADD SLOAD PUSH1 0xFF AND PUSH2 0x5C6 JUMPI PUSH1 0x40 MLOAD PUSH4 0x4065AAF1 PUSH1 0xE1 SHL DUP2 MSTORE PUSH1 0x4 ADD PUSH1 0x40 MLOAD DUP1 SWAP2 SUB SWAP1 REVERT JUMPDEST PUSH1 0x5 DUP2 ADD SLOAD PUSH2 0x100 SWAP1 DIV PUSH1 0xFF AND ISZERO PUSH2 0x5F1 JUMPI PUSH1 0x40 MLOAD PUSH4 0x46B8055B PUSH1 0xE1 SHL DUP2 MSTORE PUSH1 0x4 ADD PUSH1 0x40 MLOAD DUP1 SWAP2 SUB SWAP1 REVERT JUMPDEST PUSH1 0x5 DUP2 ADD DUP1 SLOAD PUSH1 0xFF NOT AND SWAP1 SSTORE PUSH1 0x7 SLOAD PUSH1 0x3 DUP3 ADD SLOAD PUSH1 0x40 MLOAD PUSH4 0xBFF8A36D PUSH1 0xE0 SHL DUP2 MSTORE PUSH1 0x1 PUSH1 0x1 PUSH1 0xA0 SHL SUB SWAP1 SWAP3 AND SWAP2 PUSH4 0xBFF8A36D SWAP2 PUSH2 0x634 SWAP2 PUSH1 0x4 ADD SWAP1 DUP2 MSTORE PUSH1 0x20 ADD SWAP1 JUMP JUMPDEST PUSH1 0x0 PUSH1 0x40 MLOAD DUP1 DUP4 SUB DUP2 PUSH1 0x0 DUP8 DUP1 EXTCODESIZE ISZERO DUP1 ISZERO PUSH2 0x64E JUMPI PUSH1 0x0 DUP1 REVERT JUMPDEST POP GAS CALL ISZERO DUP1 ISZERO PUSH2 0x662 JUMPI RETURNDATASIZE PUSH1 0x0 DUP1 RETURNDATACOPY RETURNDATASIZE PUSH1 0x0 REVERT JUMPDEST POP POP PUSH1 0x40 MLOAD DUP5 SWAP3 POP PUSH32 0xBB1AE509B65D9486A686F3F1B0435353031B5607109DC80AA4D063887E10F3E8 SWAP2 POP PUSH1 0x0 SWAP1 LOG2 POP POP JUMP JUMPDEST PUSH1 0x0 SLOAD PUSH1 0x1 PUSH1 0x1 PUSH1 0xA0 SHL SUB AND CALLER EQ DUP1 ISZERO SWAP1 PUSH2 0x6BB JUMPI POP PUSH1 0x8 SLOAD PUSH1 0x1 PUSH1 0x1 PUSH1 0xA0 SHL SUB AND CALLER EQ ISZERO JUMPDEST ISZERO PUSH2 0x6D9 JUMPI PUSH1 0x40 MLOAD PUSH4 0xEA8E4EB5 PUSH1 0xE0 SHL DUP2 MSTORE PUSH1 0x4 ADD PUSH1 0x40 MLOAD DUP1 SWAP2 SUB SWAP1 REVERT JUMPDEST PUSH1 0x0 DUP2 DUP2 MSTORE PUSH1 0x3 PUSH1 0x20 MSTORE PUSH1 0x40 SWAP1 KECCAK256 PUSH1 0x1 DUP2 ADD SLOAD PUSH1 0x1 PUSH1 0x1 PUSH1 0xA0 SHL SUB AND PUSH2 0x712 JUMPI PUSH1 0x40 MLOAD PUSH4 0x720CAA4F PUSH1 0xE0 SHL DUP2 MSTORE PUSH1 0x4 ADD PUSH1 0x40 MLOAD DUP1 SWAP2 SUB SWAP1 REVERT JUMPDEST PUSH1 0x5 DUP2 ADD SLOAD PUSH1 0xFF AND PUSH2 0x737 JUMPI PUSH1 0x40 MLOAD PUSH4 0x4065AAF1 PUSH1 0xE1 SHL DUP2 MSTORE PUSH1 0x4 ADD PUSH1 0x40 MLOAD DUP1 SWAP2 SUB SWAP1 REVERT JUMPDEST PUSH1 0x5 DUP2 ADD SLOAD PUSH2 0x100 SWAP1 DIV PUSH1 0xFF AND ISZERO PUSH2 0x762 JUMPI PUSH1 0x40 MLOAD PUSH4 0x46B8055B PUSH1 0xE1 SHL DUP2 MSTORE PUSH1 0x4 ADD PUSH1 0x40 MLOAD DUP1 SWAP2 SUB SWAP1 REVERT JUMPDEST PUSH1 0x5 DUP2 ADD DUP1 SLOAD PUSH2 0xFF00 NOT AND PUSH2 0x100 OR SWAP1 SSTORE PUSH1 0x40 MLOAD DUP3 SWAP1 PUSH32 0x5D8D8E7AD8FEB4BD333FE6788875531690F333312FC805E7520BDFD01384E285 SWAP1 PUSH1 0x0 SWAP1 LOG2 PUSH2 0x7A7 DUP3 PUSH2 0xE5C JUMP JUMPDEST POP POP JUMP JUMPDEST PUSH2 0x7B3 PUSH2 0xE2F JUMP JUMPDEST PUSH2 0x7BB PUSH2 0x10F3 JUMP JUMPDEST JUMP JUMPDEST PUSH1 0x8 SLOAD PUSH1 0x1 PUSH1 0x1 PUSH1 0xA0 SHL SUB AND CALLER EQ PUSH2 0x7E8 JUMPI PUSH1 0x40 MLOAD PUSH4 0xEA8E4EB5 PUSH1 0xE0 SHL DUP2 MSTORE PUSH1 0x4 ADD PUSH1 0x40 MLOAD DUP1 SWAP2 SUB SWAP1 REVERT JUMPDEST PUSH1 0x0 DUP3 DUP2 MSTORE PUSH1 0xA PUSH1 0x20 SWAP1 DUP2 MSTORE PUSH1 0x40 DUP1 DUP4 KECCAK256 SLOAD DUP1 DUP5 MSTORE PUSH1 0x3 SWAP1 SWAP3 MSTORE SWAP1 SWAP2 KECCAK256 PUSH1 0x1 ADD SLOAD PUSH1 0x1 PUSH1 0x1 PUSH1 0xA0 SHL SUB AND PUSH2 0x82F JUMPI PUSH1 0x40 MLOAD PUSH4 0x720CAA4F PUSH1 0xE0 SHL DUP2 MSTORE PUSH1 0x4 ADD PUSH1 0x40 MLOAD DUP1 SWAP2 SUB SWAP1 REVERT JUMPDEST PUSH1 0x0 DUP2 DUP2 MSTORE PUSH1 0x5 PUSH1 0x20 MSTORE PUSH1 0x40 SWAP1 KECCAK256 SLOAD PUSH1 0xFF AND ISZERO PUSH2 0x85F JUMPI PUSH1 0x40 MLOAD PUSH4 0xD70A0E3 PUSH1 0xE4 SHL DUP2 MSTORE PUSH1 0x4 ADD PUSH1 0x40 MLOAD DUP1 SWAP2 SUB SWAP1 REVERT JUMPDEST DUP3 PUSH32 0x6B58F50BA647121EC500714BA063E916C8251DA27EDE7485971B6FE27F184C9E DUP4 PUSH1 0x40 MLOAD PUSH2 0x891 SWAP2 DUP2 MSTORE PUSH1 0x20 ADD SWAP1 JUMP JUMPDEST PUSH1 0x40 MLOAD DUP1 SWAP2 SUB SWAP1 LOG2 PUSH1 0x0 DUP2 DUP2 MSTORE PUSH1 0x3 PUSH1 0x20 MSTORE PUSH1 0x40 SWAP1 KECCAK256 PUSH1 0x4 ADD SLOAD DUP3 LT PUSH2 0x8FF JUMPI PUSH1 0x0 DUP2 DUP2 MSTORE PUSH1 0x3 PUSH1 0x20 MSTORE PUSH1 0x40 DUP1 DUP3 KECCAK256 PUSH1 0x5 ADD DUP1 SLOAD PUSH2 0xFF00 NOT AND PUSH2 0x100 OR SWAP1 SSTORE MLOAD DUP3 SWAP2 PUSH32 0x5D8D8E7AD8FEB4BD333FE6788875531690F333312FC805E7520BDFD01384E285 SWAP2 LOG2 PUSH2 0x8FF DUP2 PUSH2 0xE5C JUMP JUMPDEST POP POP PUSH1 0x0 SWAP1 DUP2 MSTORE PUSH1 0xA PUSH1 0x20 MSTORE PUSH1 0x40 DUP2 KECCAK256 SSTORE JUMP JUMPDEST PUSH2 0x91A PUSH2 0xE2F JUMP JUMPDEST PUSH1 0x0 DUP2 GT PUSH2 0x95D JUMPI PUSH1 0x40 MLOAD PUSH3 0x461BCD PUSH1 0xE5 SHL DUP2 MSTORE PUSH1 0x20 PUSH1 0x4 DUP3 ADD MSTORE PUSH1 0xB PUSH1 0x24 DUP3 ADD MSTORE PUSH11 0x6D61785061796F75743D3 PUSH1 0xAC SHL PUSH1 0x44 DUP3 ADD MSTORE PUSH1 0x64 ADD JUMPDEST PUSH1 0x40 MLOAD DUP1 SWAP2 SUB SWAP1 REVERT JUMPDEST PUSH1 0x9 SSTORE JUMP JUMPDEST PUSH2 0x96A PUSH2 0x1145 JUMP JUMPDEST CALLVALUE PUSH1 0x0 SUB PUSH2 0x98B JUMPI PUSH1 0x40 MLOAD PUSH4 0x7E1E0E5B PUSH1 0xE0 SHL DUP2 MSTORE PUSH1 0x4 ADD PUSH1 0x40 MLOAD DUP1 SWAP2 SUB SWAP1 REVERT JUMPDEST DUP2 PUSH1 0x0 SUB PUSH2 0x9AC JUMPI PUSH1 0x40 MLOAD PUSH4 0x373D696F PUSH1 0xE1 SHL DUP2 MSTORE PUSH1 0x4 ADD PUSH1 0x40 MLOAD DUP1 SWAP2 SUB SWAP1 REVERT JUMPDEST PUSH1 0x9 SLOAD DUP3 GT ISZERO PUSH2 0x9CF JUMPI PUSH1 0x40 MLOAD PUSH4 0x820C43D PUSH1 0xE1 SHL DUP2 MSTORE PUSH1 0x4 ADD PUSH1 0x40 MLOAD DUP1 SWAP2 SUB SWAP1 REVERT JUMPDEST PUSH1 0x6 DUP1 SLOAD PUSH1 0x40 DUP1 MLOAD PUSH1 0xE0 DUP2 ADD DUP3 MSTORE DUP3 DUP2 MSTORE CALLER PUSH1 0x20 DUP1 DUP4 ADD DUP3 DUP2 MSTORE CALLVALUE DUP5 DUP7 ADD SWAP1 DUP2 MSTORE PUSH1 0x60 DUP6 ADD DUP11 DUP2 MSTORE PUSH1 0x80 DUP7 ADD DUP11 DUP2 MSTORE PUSH1 0x1 PUSH1 0xA0 DUP9 ADD DUP2 DUP2 MSTORE PUSH1 0x0 PUSH1 0xC0 DUP11 ADD DUP2 DUP2 MSTORE DUP13 DUP3 MSTORE PUSH1 0x3 DUP1 DUP11 MSTORE DUP13 DUP4 KECCAK256 SWAP12 MLOAD DUP13 SSTORE SWAP8 MLOAD DUP12 DUP6 ADD DUP1 SLOAD PUSH1 0x1 PUSH1 0x1 PUSH1 0xA0 SHL SUB NOT AND PUSH1 0x1 PUSH1 0x1 PUSH1 0xA0 SHL SUB SWAP1 SWAP3 AND SWAP2 SWAP1 SWAP2 OR SWAP1 SSTORE SWAP6 MLOAD PUSH1 0x2 DUP12 ADD SSTORE SWAP4 MLOAD SWAP6 DUP10 ADD SWAP6 SWAP1 SWAP6 SSTORE SWAP1 MLOAD PUSH1 0x4 DUP1 DUP10 ADD SWAP2 SWAP1 SWAP2 SSTORE SWAP4 MLOAD PUSH1 0x5 SWAP1 SWAP8 ADD DUP1 SLOAD SWAP4 MLOAD PUSH2 0xFFFF NOT SWAP1 SWAP5 AND SWAP8 ISZERO ISZERO PUSH2 0xFF00 NOT AND SWAP8 SWAP1 SWAP8 OR PUSH2 0x100 SWAP4 ISZERO ISZERO SWAP4 SWAP1 SWAP4 MUL SWAP3 SWAP1 SWAP3 OR SWAP1 SWAP6 SSTORE SWAP3 DUP5 MSTORE DUP2 MSTORE SWAP3 DUP3 KECCAK256 DUP1 SLOAD DUP1 DUP4 ADD DUP3 SSTORE SWAP1 DUP4 MSTORE SWAP3 DUP3 KECCAK256 SWAP1 SWAP3 ADD DUP4 SWAP1 SSTORE DUP4 SLOAD SWAP3 SWAP4 SWAP2 SWAP3 PUSH2 0xAB7 SWAP1 DUP5 SWAP1 PUSH2 0x138B JUMP JUMPDEST SWAP1 SWAP2 SSTORE POP POP PUSH1 0x7 SLOAD PUSH1 0x40 DUP1 MLOAD PUSH4 0xD0E30DB PUSH1 0xE4 SHL DUP2 MSTORE SWAP1 MLOAD PUSH1 0x1 PUSH1 0x1 PUSH1 0xA0 SHL SUB SWAP1 SWAP3 AND SWAP2 PUSH4 0xD0E30DB0 SWAP2 CALLVALUE SWAP2 PUSH1 0x4 DUP1 DUP4 ADD SWAP3 PUSH1 0x0 SWAP3 SWAP2 SWAP1 DUP3 SWAP1 SUB ADD DUP2 DUP6 DUP9 DUP1 EXTCODESIZE ISZERO DUP1 ISZERO PUSH2 0xB03 JUMPI PUSH1 0x0 DUP1 REVERT JUMPDEST POP GAS CALL ISZERO DUP1 ISZERO PUSH2 0xB17 JUMPI RETURNDATASIZE PUSH1 0x0 DUP1 RETURNDATACOPY RETURNDATASIZE PUSH1 0x0 REVERT JUMPDEST POP POP PUSH1 0x7 SLOAD PUSH1 0x40 MLOAD PUSH4 0xFDFBE1F PUSH1 0xE1 SHL DUP2 MSTORE PUSH1 0x4 DUP2 ADD DUP9 SWAP1 MSTORE PUSH1 0x1 PUSH1 0x1 PUSH1 0xA0 SHL SUB SWAP1 SWAP2 AND SWAP4 POP PUSH4 0x1FBF7C3E SWAP3 POP PUSH1 0x24 ADD SWAP1 POP PUSH1 0x0 PUSH1 0x40 MLOAD DUP1 DUP4 SUB DUP2 PUSH1 0x0 DUP8 DUP1 EXTCODESIZE ISZERO DUP1 ISZERO PUSH2 0xB63 JUMPI PUSH1 0x0 DUP1 REVERT JUMPDEST POP GAS CALL ISZERO DUP1 ISZERO PUSH2 0xB77 JUMPI RETURNDATASIZE PUSH1 0x0 DUP1 RETURNDATACOPY RETURNDATASIZE PUSH1 0x0 REVERT JUMPDEST POP POP PUSH1 0x40 DUP1 MLOAD CALLVALUE DUP2 MSTORE PUSH1 0x20 DUP2 ADD DUP8 SWAP1 MSTORE CALLER SWAP4 POP DUP5 SWAP3 POP PUSH32 0x86175DB98187E6DDFE37C7302752DAE1B1287AA583F43B5B6C7038D991C8DC57 SWAP2 ADD PUSH1 0x40 MLOAD DUP1 SWAP2 SUB SWAP1 LOG3 POP POP POP JUMP JUMPDEST PUSH2 0xBC5 PUSH2 0xE2F JUMP JUMPDEST PUSH2 0x7BB PUSH1 0x0 PUSH2 0x1169 JUMP JUMPDEST PUSH2 0xBD7 PUSH2 0xE2F JUMP JUMPDEST PUSH1 0x1 PUSH1 0x1 PUSH1 0xA0 SHL SUB DUP2 AND PUSH2 0xBFE JUMPI PUSH1 0x40 MLOAD PUSH4 0x9589A27D PUSH1 0xE0 SHL DUP2 MSTORE PUSH1 0x4 ADD PUSH1 0x40 MLOAD DUP1 SWAP2 SUB SWAP1 REVERT JUMPDEST PUSH1 0x8 DUP1 SLOAD PUSH1 0x1 PUSH1 0x1 PUSH1 0xA0 SHL SUB NOT AND PUSH1 0x1 PUSH1 0x1 PUSH1 0xA0 SHL SUB SWAP3 SWAP1 SWAP3 AND SWAP2 SWAP1 SWAP2 OR SWAP1 SSTORE JUMP JUMPDEST PUSH2 0xC28 PUSH2 0xE2F JUMP JUMPDEST PUSH2 0x7BB PUSH2 0x11B9 JUMP JUMPDEST PUSH1 0x4 PUSH1 0x20 MSTORE DUP2 PUSH1 0x0 MSTORE PUSH1 0x40 PUSH1 0x0 KECCAK256 DUP2 DUP2 SLOAD DUP2 LT PUSH2 0xC4C JUMPI PUSH1 0x0 DUP1 REVERT JUMPDEST SWAP1 PUSH1 0x0 MSTORE PUSH1 0x20 PUSH1 0x0 KECCAK256 ADD PUSH1 0x0 SWAP2 POP SWAP2 POP POP SLOAD DUP2 JUMP JUMPDEST PUSH1 0x1 PUSH1 0x1 PUSH1 0xA0 SHL SUB DUP2 AND PUSH1 0x0 SWAP1 DUP2 MSTORE PUSH1 0x4 PUSH1 0x20 MSTORE PUSH1 0x40 DUP2 KECCAK256 DUP1 SLOAD PUSH1 0x60 SWAP3 DUP2 PUSH8 0xFFFFFFFFFFFFFFFF DUP2 GT ISZERO PUSH2 0xC97 JUMPI PUSH2 0xC97 PUSH2 0x13A4 JUMP JUMPDEST PUSH1 0x40 MLOAD SWAP1 DUP1 DUP3 MSTORE DUP1 PUSH1 0x20 MUL PUSH1 0x20 ADD DUP3 ADD PUSH1 0x40 MSTORE DUP1 ISZERO PUSH2 0xD15 JUMPI DUP2 PUSH1 0x20 ADD JUMPDEST PUSH2 0xD02 PUSH1 0x40 MLOAD DUP1 PUSH1 0xE0 ADD PUSH1 0x40 MSTORE DUP1 PUSH1 0x0 DUP2 MSTORE PUSH1 0x20 ADD PUSH1 0x0 PUSH1 0x1 PUSH1 0x1 PUSH1 0xA0 SHL SUB AND DUP2 MSTORE PUSH1 0x20 ADD PUSH1 0x0 DUP2 MSTORE PUSH1 0x20 ADD PUSH1 0x0 DUP2 MSTORE PUSH1 0x20 ADD PUSH1 0x0 DUP2 MSTORE PUSH1 0x20 ADD PUSH1 0x0 ISZERO ISZERO DUP2 MSTORE PUSH1 0x20 ADD PUSH1 0x0 ISZERO ISZERO DUP2 MSTORE POP SWAP1 JUMP JUMPDEST DUP2 MSTORE PUSH1 0x20 ADD SWAP1 PUSH1 0x1 SWAP1 SUB SWAP1 DUP2 PUSH2 0xCB5 JUMPI SWAP1 POP JUMPDEST POP SWAP1 POP PUSH1 0x0 JUMPDEST DUP3 DUP2 LT ISZERO PUSH2 0xDE8 JUMPI PUSH1 0x3 PUSH1 0x0 DUP6 DUP4 DUP2 SLOAD DUP2 LT PUSH2 0xD39 JUMPI PUSH2 0xD39 PUSH2 0x13BA JUMP JUMPDEST PUSH1 0x0 SWAP2 DUP3 MSTORE PUSH1 0x20 DUP1 DUP4 KECCAK256 SWAP1 SWAP2 ADD SLOAD DUP4 MSTORE DUP3 DUP2 ADD SWAP4 SWAP1 SWAP4 MSTORE PUSH1 0x40 SWAP2 DUP3 ADD SWAP1 KECCAK256 DUP2 MLOAD PUSH1 0xE0 DUP2 ADD DUP4 MSTORE DUP2 SLOAD DUP2 MSTORE PUSH1 0x1 DUP3 ADD SLOAD PUSH1 0x1 PUSH1 0x1 PUSH1 0xA0 SHL SUB AND SWAP4 DUP2 ADD SWAP4 SWAP1 SWAP4 MSTORE PUSH1 0x2 DUP2 ADD SLOAD SWAP2 DUP4 ADD SWAP2 SWAP1 SWAP2 MSTORE PUSH1 0x3 DUP2 ADD SLOAD PUSH1 0x60 DUP4 ADD MSTORE PUSH1 0x4 DUP2 ADD SLOAD PUSH1 0x80 DUP4 ADD MSTORE PUSH1 0x5 ADD SLOAD PUSH1 0xFF DUP1 DUP3 AND ISZERO ISZERO PUSH1 0xA0 DUP5 ADD MSTORE PUSH2 0x100 SWAP1 SWAP2 DIV AND ISZERO ISZERO PUSH1 0xC0 DUP3 ADD MSTORE DUP3 MLOAD DUP4 SWAP1 DUP4 SWAP1 DUP2 LT PUSH2 0xDCA JUMPI PUSH2 0xDCA PUSH2 0x13BA JUMP JUMPDEST PUSH1 0x20 MUL PUSH1 0x20 ADD ADD DUP2 SWAP1 MSTORE POP DUP1 DUP1 PUSH2 0xDE0 SWAP1 PUSH2 0x13D0 JUMP JUMPDEST SWAP2 POP POP PUSH2 0xD1B JUMP JUMPDEST POP SWAP5 SWAP4 POP POP POP POP JUMP JUMPDEST PUSH2 0xDF9 PUSH2 0xE2F JUMP JUMPDEST PUSH1 0x1 PUSH1 0x1 PUSH1 0xA0 SHL SUB DUP2 AND PUSH2 0xE23 JUMPI PUSH1 0x40 MLOAD PUSH4 0x1E4FBDF7 PUSH1 0xE0 SHL DUP2 MSTORE PUSH1 0x0 PUSH1 0x4 DUP3 ADD MSTORE PUSH1 0x24 ADD PUSH2 0x954 JUMP JUMPDEST PUSH2 0xE2C DUP2 PUSH2 0x1169 JUMP JUMPDEST POP JUMP JUMPDEST PUSH1 0x0 SLOAD PUSH1 0x1 PUSH1 0x1 PUSH1 0xA0 SHL SUB AND CALLER EQ PUSH2 0x7BB JUMPI PUSH1 0x40 MLOAD PUSH4 0x118CDAA7 PUSH1 0xE0 SHL DUP2 MSTORE CALLER PUSH1 0x4 DUP3 ADD MSTORE PUSH1 0x24 ADD PUSH2 0x954 JUMP JUMPDEST PUSH2 0xE64 PUSH2 0x11F6 JUMP JUMPDEST PUSH1 0x0 DUP2 DUP2 MSTORE PUSH1 0x3 PUSH1 0x20 MSTORE PUSH1 0x40 SWAP1 KECCAK256 PUSH1 0x1 DUP2 ADD SLOAD PUSH1 0x1 PUSH1 0x1 PUSH1 0xA0 SHL SUB AND PUSH2 0xE9D JUMPI PUSH1 0x40 MLOAD PUSH4 0x720CAA4F PUSH1 0xE0 SHL DUP2 MSTORE PUSH1 0x4 ADD PUSH1 0x40 MLOAD DUP1 SWAP2 SUB SWAP1 REVERT JUMPDEST PUSH1 0x5 DUP2 ADD SLOAD PUSH1 0xFF AND DUP1 ISZERO PUSH2 0xEBA JUMPI POP PUSH1 0x5 DUP2 ADD SLOAD PUSH2 0x100 SWAP1 DIV PUSH1 0xFF AND JUMPDEST PUSH2 0xED7 JUMPI PUSH1 0x40 MLOAD PUSH4 0x4065AAF1 PUSH1 0xE1 SHL DUP2 MSTORE PUSH1 0x4 ADD PUSH1 0x40 MLOAD DUP1 SWAP2 SUB SWAP1 REVERT JUMPDEST PUSH1 0x0 DUP3 DUP2 MSTORE PUSH1 0x5 PUSH1 0x20 MSTORE PUSH1 0x40 SWAP1 KECCAK256 SLOAD PUSH1 0xFF AND ISZERO PUSH2 0xF07 JUMPI PUSH1 0x40 MLOAD PUSH4 0xD70A0E3 PUSH1 0xE4 SHL DUP2 MSTORE PUSH1 0x4 ADD PUSH1 0x40 MLOAD DUP1 SWAP2 SUB SWAP1 REVERT JUMPDEST DUP1 PUSH1 0x3 ADD SLOAD PUSH1 0x7 PUSH1 0x0 SWAP1 SLOAD SWAP1 PUSH2 0x100 EXP SWAP1 DIV PUSH1 0x1 PUSH1 0x1 PUSH1 0xA0 SHL SUB AND PUSH1 0x1 PUSH1 0x1 PUSH1 0xA0 SHL SUB AND PUSH4 0x12065FE0 PUSH1 0x40 MLOAD DUP2 PUSH4 0xFFFFFFFF AND PUSH1 0xE0 SHL DUP2 MSTORE PUSH1 0x4 ADD PUSH1 0x20 PUSH1 0x40 MLOAD DUP1 DUP4 SUB DUP2 DUP7 GAS STATICCALL ISZERO DUP1 ISZERO PUSH2 0xF5F JUMPI RETURNDATASIZE PUSH1 0x0 DUP1 RETURNDATACOPY RETURNDATASIZE PUSH1 0x0 REVERT JUMPDEST POP POP POP POP PUSH1 0x40 MLOAD RETURNDATASIZE PUSH1 0x1F NOT PUSH1 0x1F DUP3 ADD AND DUP3 ADD DUP1 PUSH1 0x40 MSTORE POP DUP2 ADD SWAP1 PUSH2 0xF83 SWAP2 SWAP1 PUSH2 0x13E9 JUMP JUMPDEST LT ISZERO PUSH2 0xFA2 JUMPI PUSH1 0x40 MLOAD PUSH4 0x356680B7 PUSH1 0xE0 SHL DUP2 MSTORE PUSH1 0x4 ADD PUSH1 0x40 MLOAD DUP1 SWAP2 SUB SWAP1 REVERT JUMPDEST PUSH1 0x5 DUP2 DUP2 ADD DUP1 SLOAD PUSH1 0xFF NOT SWAP1 DUP2 AND SWAP1 SWAP2 SSTORE PUSH1 0x0 DUP5 DUP2 MSTORE PUSH1 0x20 SWAP3 SWAP1 SWAP3 MSTORE PUSH1 0x40 SWAP2 DUP3 SWAP1 KECCAK256 DUP1 SLOAD SWAP1 SWAP2 AND PUSH1 0x1 OR SWAP1 SSTORE PUSH1 0x7 SLOAD PUSH1 0x3 DUP4 ADD SLOAD SWAP2 MLOAD PUSH4 0xBFF8A36D PUSH1 0xE0 SHL DUP2 MSTORE PUSH1 0x4 DUP2 ADD SWAP3 SWAP1 SWAP3 MSTORE PUSH1 0x1 PUSH1 0x1 PUSH1 0xA0 SHL SUB AND SWAP1 PUSH4 0xBFF8A36D SWAP1 PUSH1 0x24 ADD PUSH1 0x0 PUSH1 0x40 MLOAD DUP1 DUP4 SUB DUP2 PUSH1 0x0 DUP8 DUP1 EXTCODESIZE ISZERO DUP1 ISZERO PUSH2 0x1016 JUMPI PUSH1 0x0 DUP1 REVERT JUMPDEST POP GAS CALL ISZERO DUP1 ISZERO PUSH2 0x102A JUMPI RETURNDATASIZE PUSH1 0x0 DUP1 RETURNDATACOPY RETURNDATASIZE PUSH1 0x0 REVERT JUMPDEST POP POP PUSH1 0x7 SLOAD PUSH1 0x1 DUP5 ADD SLOAD PUSH1 0x3 DUP6 ADD SLOAD PUSH1 0x40 MLOAD PUSH4 0xED1218B PUSH1 0xE3 SHL DUP2 MSTORE PUSH1 0x1 PUSH1 0x1 PUSH1 0xA0 SHL SUB SWAP3 DUP4 AND PUSH1 0x4 DUP3 ADD MSTORE PUSH1 0x24 DUP2 ADD SWAP2 SWAP1 SWAP2 MSTORE SWAP2 AND SWAP3 POP PUSH4 0x76890C58 SWAP2 POP PUSH1 0x44 ADD PUSH1 0x0 PUSH1 0x40 MLOAD DUP1 DUP4 SUB DUP2 PUSH1 0x0 DUP8 DUP1 EXTCODESIZE ISZERO DUP1 ISZERO PUSH2 0x1086 JUMPI PUSH1 0x0 DUP1 REVERT JUMPDEST POP GAS CALL ISZERO DUP1 ISZERO PUSH2 0x109A JUMPI RETURNDATASIZE PUSH1 0x0 DUP1 RETURNDATACOPY RETURNDATASIZE PUSH1 0x0 REVERT JUMPDEST POP POP POP POP PUSH1 0x1 DUP2 ADD SLOAD PUSH1 0x3 DUP3 ADD SLOAD PUSH1 0x40 MLOAD SWAP1 DUP2 MSTORE PUSH1 0x1 PUSH1 0x1 PUSH1 0xA0 SHL SUB SWAP1 SWAP2 AND SWAP1 DUP4 SWAP1 PUSH32 0xBEAA99D72A600712E4656A7DA04B2CABE31FB50FBF8F5B5F96513B0A4F495C1A SWAP1 PUSH1 0x20 ADD PUSH1 0x40 MLOAD DUP1 SWAP2 SUB SWAP1 LOG3 POP PUSH2 0xE2C PUSH1 0x1 DUP1 SSTORE JUMP JUMPDEST PUSH2 0x10FB PUSH2 0x1220 JUMP JUMPDEST PUSH1 0x2 DUP1 SLOAD PUSH1 0xFF NOT AND SWAP1 SSTORE PUSH32 0x5DB9EE0A495BF2E6FF9C91A7834C1BA4FDD244A5E8AA4E537BD38AEAE4B073AA CALLER JUMPDEST PUSH1 0x40 MLOAD PUSH1 0x1 PUSH1 0x1 PUSH1 0xA0 SHL SUB SWAP1 SWAP2 AND DUP2 MSTORE PUSH1 0x20 ADD PUSH1 0x40 MLOAD DUP1 SWAP2 SUB SWAP1 LOG1 JUMP JUMPDEST PUSH1 0x2 SLOAD PUSH1 0xFF AND ISZERO PUSH2 0x7BB JUMPI PUSH1 0x40 MLOAD PUSH4 0xD93C0665 PUSH1 0xE0 SHL DUP2 MSTORE PUSH1 0x4 ADD PUSH1 0x40 MLOAD DUP1 SWAP2 SUB SWAP1 REVERT JUMPDEST PUSH1 0x0 DUP1 SLOAD PUSH1 0x1 PUSH1 0x1 PUSH1 0xA0 SHL SUB DUP4 DUP2 AND PUSH1 0x1 PUSH1 0x1 PUSH1 0xA0 SHL SUB NOT DUP4 AND DUP2 OR DUP5 SSTORE PUSH1 0x40 MLOAD SWAP2 SWAP1 SWAP3 AND SWAP3 DUP4 SWAP2 PUSH32 0x8BE0079C531659141344CD1FD0A4F28419497F9722A3DAAFE3B4186F6B6457E0 SWAP2 SWAP1 LOG3 POP POP JUMP JUMPDEST PUSH2 0x11C1 PUSH2 0x1145 JUMP JUMPDEST PUSH1 0x2 DUP1 SLOAD PUSH1 0xFF NOT AND PUSH1 0x1 OR SWAP1 SSTORE PUSH32 0x62E78CEA01BEE320CD4E420270B5EA74000D11B0C9F74754EBDBFC544B05A258 PUSH2 0x1128 CALLER SWAP1 JUMP JUMPDEST PUSH1 0x2 PUSH1 0x1 SLOAD SUB PUSH2 0x1219 JUMPI PUSH1 0x40 MLOAD PUSH4 0x3EE5AEB5 PUSH1 0xE0 SHL DUP2 MSTORE PUSH1 0x4 ADD PUSH1 0x40 MLOAD DUP1 SWAP2 SUB SWAP1 REVERT JUMPDEST PUSH1 0x2 PUSH1 0x1 SSTORE JUMP JUMPDEST PUSH1 0x2 SLOAD PUSH1 0xFF AND PUSH2 0x7BB JUMPI PUSH1 0x40 MLOAD PUSH4 0x8DFC202B PUSH1 0xE0 SHL DUP2 MSTORE PUSH1 0x4 ADD PUSH1 0x40 MLOAD DUP1 SWAP2 SUB SWAP1 REVERT JUMPDEST PUSH1 0x0 PUSH1 0x20 DUP3 DUP5 SUB SLT ISZERO PUSH2 0x1255 JUMPI PUSH1 0x0 DUP1 REVERT JUMPDEST POP CALLDATALOAD SWAP2 SWAP1 POP JUMP JUMPDEST PUSH1 0x0 DUP1 PUSH1 0x40 DUP4 DUP6 SUB SLT ISZERO PUSH2 0x126F JUMPI PUSH1 0x0 DUP1 REVERT JUMPDEST POP POP DUP1 CALLDATALOAD SWAP3 PUSH1 0x20 SWAP1 SWAP2 ADD CALLDATALOAD SWAP2 POP JUMP JUMPDEST DUP1 CALLDATALOAD PUSH1 0x1 PUSH1 0x1 PUSH1 0xA0 SHL SUB DUP2 AND DUP2 EQ PUSH2 0x1295 JUMPI PUSH1 0x0 DUP1 REVERT JUMPDEST SWAP2 SWAP1 POP JUMP JUMPDEST PUSH1 0x0 PUSH1 0x20 DUP3 DUP5 SUB SLT ISZERO PUSH2 0x12AC JUMPI PUSH1 0x0 DUP1 REVERT JUMPDEST PUSH2 0x12B5 DUP3 PUSH2 0x127E JUMP JUMPDEST SWAP4 SWAP3 POP POP POP JUMP JUMPDEST PUSH1 0x0 DUP1 PUSH1 0x40 DUP4 DUP6 SUB SLT ISZERO PUSH2 0x12CF JUMPI PUSH1 0x0 DUP1 REVERT JUMPDEST PUSH2 0x12D8 DUP4 PUSH2 0x127E JUMP JUMPDEST SWAP5 PUSH1 0x20 SWAP4 SWAP1 SWAP4 ADD CALLDATALOAD SWAP4 POP POP POP JUMP JUMPDEST PUSH1 0x20 DUP1 DUP3 MSTORE DUP3 MLOAD DUP3 DUP3 ADD DUP2 SWAP1 MSTORE PUSH1 0x0 SWAP2 SWAP1 PUSH1 0x40 SWAP1 DUP2 DUP6 ADD SWAP1 DUP7 DUP5 ADD DUP6 JUMPDEST DUP3 DUP2 LT ISZERO PUSH2 0x1368 JUMPI DUP2 MLOAD DUP1 MLOAD DUP6 MSTORE DUP7 DUP2 ADD MLOAD PUSH1 0x1 PUSH1 0x1 PUSH1 0xA0 SHL SUB AND DUP8 DUP7 ADD MSTORE DUP6 DUP2 ADD MLOAD DUP7 DUP7 ADD MSTORE PUSH1 0x60 DUP1 DUP3 ADD MLOAD SWAP1 DUP7 ADD MSTORE PUSH1 0x80 DUP1 DUP3 ADD MLOAD SWAP1 DUP7 ADD MSTORE PUSH1 0xA0 DUP1 DUP3 ADD MLOAD ISZERO ISZERO SWAP1 DUP7 ADD MSTORE PUSH1 0xC0 SWAP1 DUP2 ADD MLOAD ISZERO ISZERO SWAP1 DUP6 ADD MSTORE PUSH1 0xE0 SWAP1 SWAP4 ADD SWAP3 SWAP1 DUP6 ADD SWAP1 PUSH1 0x1 ADD PUSH2 0x1303 JUMP JUMPDEST POP SWAP2 SWAP8 SWAP7 POP POP POP POP POP POP POP JUMP JUMPDEST PUSH4 0x4E487B71 PUSH1 0xE0 SHL PUSH1 0x0 MSTORE PUSH1 0x11 PUSH1 0x4 MSTORE PUSH1 0x24 PUSH1 0x0 REVERT JUMPDEST DUP1 DUP3 ADD DUP1 DUP3 GT ISZERO PUSH2 0x139E JUMPI PUSH2 0x139E PUSH2 0x1375 JUMP JUMPDEST SWAP3 SWAP2 POP POP JUMP JUMPDEST PUSH4 0x4E487B71 PUSH1 0xE0 SHL PUSH1 0x0 MSTORE PUSH1 0x41 PUSH1 0x4 MSTORE PUSH1 0x24 PUSH1 0x0 REVERT JUMPDEST PUSH4 0x4E487B71 PUSH1 0xE0 SHL PUSH1 0x0 MSTORE PUSH1 0x32 PUSH1 0x4 MSTORE PUSH1 0x24 PUSH1 0x0 REVERT JUMPDEST PUSH1 0x0 PUSH1 0x1 DUP3 ADD PUSH2 0x13E2 JUMPI PUSH2 0x13E2 PUSH2 0x1375 JUMP JUMPDEST POP PUSH1 0x1 ADD SWAP1 JUMP JUMPDEST PUSH1 0x0 PUSH1 0x20 DUP3 DUP5 SUB SLT ISZERO PUSH2 0x13FB JUMPI PUSH1 0x0 DUP1 REVERT JUMPDEST POP MLOAD SWAP2 SWAP1 POP JUMP INVALID LOG2 PUSH5 0x6970667358 0x22 SLT KECCAK256 0xDF PUSH29 0xEECBE271BBC3F78B1D555A84652738B8DCA9EF86E579DD52A3453C47A8 0x23 PUSH5 0x736F6C6343 STOP ADDMOD EQ STOP CALLER "},"methodIdentifiers":{"buyPolicy(uint256,uint256)":"5da2460d","fulfill(bytes32,uint256)":"4357855e","getPoliciesByUser(address)":"c4e7dc80","maxPayout()":"e0176de8","nextPolicyId()":"cad0b8db","oracle()":"7dc0d1d0","owner()":"8da5cb5b","pause()":"8456cb59","paused()":"5c975abb","payoutExecuted(uint256)":"d753975d","policies(uint256)":"d3e89483","renounceOwnership()":"715018a6","requestToPolicy(bytes32)":"8a07938d","requestTriggerCheck(uint256)":"20bb428c","setMaxPayout(uint256)":"56b4997f","setOracle(address)":"7adbf973","terminatePolicy(uint256)":"3587399f","transferOwnership(address)":"f2fde38b","treasury()":"61d027b3","triggerPolicy(uint256)":"377e1cc9","unpause()":"3f4ba83a","userPolicyIds(address,uint256)":"b6e283e1"}}}}}