{
  "_format": "hh-sol-artifact-1",
  "contractName": "Policy",
  "sourceName": "contracts/Policy.sol",
  "abi": [
    {
      "inputs": [
        {
          "internalType": "address",
          "name": "initialOwner",
          "type": "address"
        },
        {
          "internalType": "contract ITreasury",
          "name": "treasuryAddress",
          "type": "address"
        }
      ],
      "stateMutability": "nonpayable",
      "type": "constructor"
    },
    {
      "inputs": [],
      "name": "AlreadyPaid",
      "type": "error"
    },
    {
      "inputs": [],
      "name": "AlreadyTriggered",
      "type": "error"
    },
    {
      "inputs": [],
      "name": "EnforcedPause",
      "type": "error"
    },
    {
      "inputs": [],
      "name": "ExpectedPause",
      "type": "error"
    },
    {
      "inputs": [],
      "name": "InsufficientFunds",
      "type": "error"
    },
    {
      "inputs": [],
      "name": "InvalidOracle",
      "type": "error"
    },
    {
      "inputs": [],
      "name": "NotActive",
      "type": "error"
    },
    {
      "inputs": [],
      "name": "NotAuthorized",
      "type": "error"
    },
    {
      "inputs": [
        {
          "internalType": "address",
          "name": "owner",
          "type": "address"
        }
      ],
      "name": "OwnableInvalidOwner",
      "type": "error"
    },
    {
      "inputs": [
        {
          "internalType": "address",
          "name": "account",
          "type": "address"
        }
      ],
      "name": "OwnableUnauthorizedAccount",
      "type": "error"
    },
    {
      "inputs": [],
      "name": "PayoutExceedsMax",
      "type": "error"
    },
    {
      "inputs": [],
      "name": "PayoutRequired",
      "type": "error"
    },
    {
      "inputs": [],
      "name": "PolicyNotFound",
      "type": "error"
    },
    {
      "inputs": [],
      "name": "PremiumRequired",
      "type": "error"
    },
    {
      "inputs": [],
      "name": "ReentrancyGuardReentrantCall",
      "type": "error"
    },
    {
      "anonymous": false,
      "inputs": [
        {
          "indexed": true,
          "internalType": "bytes32",
          "name": "requestId",
          "type": "bytes32"
        },
        {
          "indexed": false,
          "internalType": "uint256",
          "name": "value",
          "type": "uint256"
        }
      ],
      "name": "OracleFulfilled",
      "type": "event"
    },
    {
      "anonymous": false,
      "inputs": [
        {
          "indexed": true,
          "internalType": "uint256",
          "name": "policyId",
          "type": "uint256"
        },
        {
          "indexed": true,
          "internalType": "bytes32",
          "name": "requestId",
          "type": "bytes32"
        }
      ],
      "name": "OracleRequested",
      "type": "event"
    },
    {
      "anonymous": false,
      "inputs": [
        {
          "indexed": true,
          "internalType": "address",
          "name": "previousOwner",
          "type": "address"
        },
        {
          "indexed": true,
          "internalType": "address",
          "name": "newOwner",
          "type": "address"
        }
      ],
      "name": "OwnershipTransferred",
      "type": "event"
    },
    {
      "anonymous": false,
      "inputs": [
        {
          "indexed": false,
          "internalType": "address",
          "name": "account",
          "type": "address"
        }
      ],
      "name": "Paused",
      "type": "event"
    },
    {
      "anonymous": false,
      "inputs": [
        {
          "indexed": true,
          "internalType": "uint256",
          "name": "policyId",
          "type": "uint256"
        },
        {
          "indexed": true,
          "internalType": "address",
          "name": "to",
          "type": "address"
        },
        {
          "indexed": false,
          "internalType": "uint256",
          "name": "amount",
          "type": "uint256"
        }
      ],
      "name": "PayoutExecuted",
      "type": "event"
    },
    {
      "anonymous": false,
      "inputs": [
        {
          "indexed": true,
          "internalType": "uint256",
          "name": "policyId",
          "type": "uint256"
        }
      ],
      "name": "PolicyCancelled",
      "type": "event"
    },
    {
      "anonymous": false,
      "inputs": [
        {
          "indexed": true,
          "internalType": "uint256",
          "name": "policyId",
          "type": "uint256"
        },
        {
          "indexed": true,
          "internalType": "address",
          "name": "policyholder",
          "type": "address"
        },
        {
          "indexed": false,
          "internalType": "uint256",
          "name": "premium",
          "type": "uint256"
        },
        {
          "indexed": false,
          "internalType": "uint256",
          "name": "payout",
          "type": "uint256"
        }
      ],
      "name": "PolicyPurchased",
      "type": "event"
    },
    {
      "anonymous": false,
      "inputs": [
        {
          "indexed": true,
          "internalType": "uint256",
          "name": "policyId",
          "type": "uint256"
        }
      ],
      "name": "PolicyTriggered",
      "type": "event"
    },
    {
      "anonymous": false,
      "inputs": [
        {
          "indexed": false,
          "internalType": "address",
          "name": "account",
          "type": "address"
        }
      ],
      "name": "Unpaused",
      "type": "event"
    },
    {
      "inputs": [
        {
          "internalType": "uint256",
          "name": "payout",
          "type": "uint256"
        },
        {
          "internalType": "uint256",
          "name": "threshold",
          "type": "uint256"
        }
      ],
      "name": "buyPolicy",
      "outputs": [],
      "stateMutability": "payable",
      "type": "function"
    },
    {
      "inputs": [
        {
          "internalType": "bytes32",
          "name": "requestId",
          "type": "bytes32"
        },
        {
          "internalType": "uint256",
          "name": "value",
          "type": "uint256"
        }
      ],
      "name": "fulfill",
      "outputs": [],
      "stateMutability": "nonpayable",
      "type": "function"
    },
    {
      "inputs": [
        {
          "internalType": "address",
          "name": "user",
          "type": "address"
        }
      ],
      "name": "getPoliciesByUser",
      "outputs": [
        {
          "components": [
            {
              "internalType": "uint256",
              "name": "id",
              "type": "uint256"
            },
            {
              "internalType": "address",
              "name": "policyholder",
              "type": "address"
            },
            {
              "internalType": "uint256",
              "name": "premium",
              "type": "uint256"
            },
            {
              "internalType": "uint256",
              "name": "payout",
              "type": "uint256"
            },
            {
              "internalType": "uint256",
              "name": "threshold",
              "type": "uint256"
            },
            {
              "internalType": "bool",
              "name": "active",
              "type": "bool"
            },
            {
              "internalType": "bool",
              "name": "triggered",
              "type": "bool"
            }
          ],
          "internalType": "struct Policy.PolicyData[]",
          "name": "",
          "type": "tuple[]"
        }
      ],
      "stateMutability": "view",
      "type": "function"
    },
    {
      "inputs": [],
      "name": "maxPayout",
      "outputs": [
        {
          "internalType": "uint256",
          "name": "",
          "type": "uint256"
        }
      ],
      "stateMutability": "view",
      "type": "function"
    },
    {
      "inputs": [],
      "name": "nextPolicyId",
      "outputs": [
        {
          "internalType": "uint256",
          "name": "",
          "type": "uint256"
        }
      ],
      "stateMutability": "view",
      "type": "function"
    },
    {
      "inputs": [],
      "name": "oracle",
      "outputs": [
        {
          "internalType": "address",
          "name": "",
          "type": "address"
        }
      ],
      "stateMutability": "view",
      "type": "function"
    },
    {
      "inputs": [],
      "name": "owner",
      "outputs": [
        {
          "internalType": "address",
          "name": "",
          "type": "address"
        }
      ],
      "stateMutability": "view",
      "type": "function"
    },
    {
      "inputs": [],
      "name": "pause",
      "outputs": [],
      "stateMutability": "nonpayable",
      "type": "function"
    },
    {
      "inputs": [],
      "name": "paused",
      "outputs": [
        {
          "internalType": "bool",
          "name": "",
          "type": "bool"
        }
      ],
      "stateMutability": "view",
      "type": "function"
    },
    {
      "inputs": [
        {
          "internalType": "uint256",
          "name": "",
          "type": "uint256"
        }
      ],
      "name": "payoutExecuted",
      "outputs": [
        {
          "internalType": "bool",
          "name": "",
          "type": "bool"
        }
      ],
      "stateMutability": "view",
      "type": "function"
    },
    {
      "inputs": [
        {
          "internalType": "uint256",
          "name": "",
          "type": "uint256"
        }
      ],
      "name": "policies",
      "outputs": [
        {
          "internalType": "uint256",
          "name": "id",
          "type": "uint256"
        },
        {
          "internalType": "address",
          "name": "policyholder",
          "type": "address"
        },
        {
          "internalType": "uint256",
          "name": "premium",
          "type": "uint256"
        },
        {
          "internalType": "uint256",
          "name": "payout",
          "type": "uint256"
        },
        {
          "internalType": "uint256",
          "name": "threshold",
          "type": "uint256"
        },
        {
          "internalType": "bool",
          "name": "active",
          "type": "bool"
        },
        {
          "internalType": "bool",
          "name": "triggered",
          "type": "bool"
        }
      ],
      "stateMutability": "view",
      "type": "function"
    },
    {
      "inputs": [],
      "name": "renounceOwnership",
      "outputs": [],
      "stateMutability": "nonpayable",
      "type": "function"
    },
    {
      "inputs": [
        {
          "internalType": "bytes32",
          "name": "",
          "type": "bytes32"
        }
      ],
      "name": "requestToPolicy",
      "outputs": [
        {
          "internalType": "uint256",
          "name": "",
          "type": "uint256"
        }
      ],
      "stateMutability": "view",
      "type": "function"
    },
    {
      "inputs": [
        {
          "internalType": "uint256",
          "name": "policyId",
          "type": "uint256"
        }
      ],
      "name": "requestTriggerCheck",
      "outputs": [
        {
          "internalType": "bytes32",
          "name": "requestId",
          "type": "bytes32"
        }
      ],
      "stateMutability": "nonpayable",
      "type": "function"
    },
    {
      "inputs": [
        {
          "internalType": "uint256",
          "name": "newMax",
          "type": "uint256"
        }
      ],
      "name": "setMaxPayout",
      "outputs": [],
      "stateMutability": "nonpayable",
      "type": "function"
    },
    {
      "inputs": [
        {
          "internalType": "address",
          "name": "oracleAddress",
          "type": "address"
        }
      ],
      "name": "setOracle",
      "outputs": [],
      "stateMutability": "nonpayable",
      "type": "function"
    },
    {
      "inputs": [
        {
          "internalType": "uint256",
          "name": "policyId",
          "type": "uint256"
        }
      ],
      "name": "terminatePolicy",
      "outputs": [],
      "stateMutability": "nonpayable",
      "type": "function"
    },
    {
      "inputs": [
        {
          "internalType": "address",
          "name": "newOwner",
          "type": "address"
        }
      ],
      "name": "transferOwnership",
      "outputs": [],
      "stateMutability": "nonpayable",
      "type": "function"
    },
    {
      "inputs": [],
      "name": "treasury",
      "outputs": [
        {
          "internalType": "contract ITreasury",
          "name": "",
          "type": "address"
        }
      ],
      "stateMutability": "view",
      "type": "function"
    },
    {
      "inputs": [
        {
          "internalType": "uint256",
          "name": "policyId",
          "type": "uint256"
        }
      ],
      "name": "triggerPolicy",
      "outputs": [],
      "stateMutability": "nonpayable",
      "type": "function"
    },
    {
      "inputs": [],
      "name": "unpause",
      "outputs": [],
      "stateMutability": "nonpayable",
      "type": "function"
    },
    {
      "inputs": [
        {
          "internalType": "address",
          "name": "",
          "type": "address"
        },
        {
          "internalType": "uint256",
          "name": "",
          "type": "uint256"
        }
      ],
      "name": "userPolicyIds",
      "outputs": [
        {
          "internalType": "uint256",
          "name": "",
          "type": "uint256"
        }
      ],
      "stateMutability": "view",
      "type": "function"
    }
  ],
  "bytecode": "0x60806040523480156200001157600080fd5b50604051620015de380380620015de833981016040819052620000349162000157565b816001600160a01b0381166200006557604051631e4fbdf760e01b8152600060048201526024015b60405180910390fd5b6200007081620000ee565b50600180556001600160a01b038116620000c15760405162461bcd60e51b8152602060048201526011602482015270151c99585cdd5c9e481c995c5d5a5c9959607a1b60448201526064016200005c565b600780546001600160a01b0319166001600160a01b03929092169190911790555060001960095562000196565b600080546001600160a01b038381166001600160a01b0319831681178455604051919092169283917f8be0079c531659141344cd1fd0a4f28419497f9722a3daafe3b4186f6b6457e09190a35050565b6001600160a01b03811681146200015457600080fd5b50565b600080604083850312156200016b57600080fd5b825162000178816200013e565b60208401519092506200018b816200013e565b809150509250929050565b61143880620001a66000396000f3fe6080604052600436106101355760003560e01c80637dc0d1d0116100ab578063c4e7dc801161006f578063c4e7dc8014610348578063cad0b8db14610375578063d3e894831461038b578063d753975d14610435578063e0176de814610465578063f2fde38b1461047b57600080fd5b80637dc0d1d0146102a85780638456cb59146102c85780638a07938d146102dd5780638da5cb5b1461030a578063b6e283e11461032857600080fd5b806356b4997f116100fd57806356b4997f146101e45780635c975abb146102045780635da2460d1461022857806361d027b31461023b578063715018a6146102735780637adbf9731461028857600080fd5b806320bb428c1461013a5780633587399f1461016d578063377e1cc91461018f5780633f4ba83a146101af5780634357855e146101c4575b600080fd5b34801561014657600080fd5b5061015a610155366004611243565b61049b565b6040519081526020015b60405180910390f35b34801561017957600080fd5b5061018d610188366004611243565b610560565b005b34801561019b57600080fd5b5061018d6101aa366004611243565b610695565b3480156101bb57600080fd5b5061018d6107ab565b3480156101d057600080fd5b5061018d6101df36600461125c565b6107bd565b3480156101f057600080fd5b5061018d6101ff366004611243565b610912565b34801561021057600080fd5b5060025460ff165b6040519015158152602001610164565b61018d61023636600461125c565b610962565b34801561024757600080fd5b5060075461025b906001600160a01b031681565b6040516001600160a01b039091168152602001610164565b34801561027f57600080fd5b5061018d610bbd565b34801561029457600080fd5b5061018d6102a336600461129a565b610bcf565b3480156102b457600080fd5b5060085461025b906001600160a01b031681565b3480156102d457600080fd5b5061018d610c20565b3480156102e957600080fd5b5061015a6102f8366004611243565b600a6020526000908152604090205481565b34801561031657600080fd5b506000546001600160a01b031661025b565b34801561033457600080fd5b5061015a6103433660046112bc565b610c30565b34801561035457600080fd5b5061036861036336600461129a565b610c61565b60405161016491906112e6565b34801561038157600080fd5b5061015a60065481565b34801561039757600080fd5b506103f46103a6366004611243565b600360208190526000918252604090912080546001820154600283015493830154600484015460059094015492946001600160a01b0390921693919290919060ff8082169161010090041687565b604080519788526001600160a01b0390961660208801529486019390935260608501919091526080840152151560a0830152151560c082015260e001610164565b34801561044157600080fd5b50610218610450366004611243565b60056020526000908152604090205460ff1681565b34801561047157600080fd5b5061015a60095481565b34801561048757600080fd5b5061018d61049636600461129a565b610df1565b60006104a5610e2f565b6000828152600360205260409020600101546001600160a01b03166104dd5760405163720caa4f60e01b815260040160405180910390fd5b6040805142602082015290810183905233606090811b6bffffffffffffffffffffffff19169082015260740160408051601f1981840301815282825280516020918201206000818152600a909252918120859055909250829184917f5eb36e752f1c46a982d3921ca5bd95fc59f92744f4e7c5554869013838673a3691a3919050565b610568610e2f565b600081815260036020526040902060018101546001600160a01b03166105a15760405163720caa4f60e01b815260040160405180910390fd5b600581015460ff166105c657604051634065aaf160e11b815260040160405180910390fd5b6005810154610100900460ff16156105f1576040516346b8055b60e11b815260040160405180910390fd5b60058101805460ff19169055600754600382015460405163bff8a36d60e01b81526001600160a01b039092169163bff8a36d916106349160040190815260200190565b600060405180830381600087803b15801561064e57600080fd5b505af1158015610662573d6000803e3d6000fd5b50506040518492507fbb1ae509b65d9486a686f3f1b0435353031b5607109dc80aa4d063887e10f3e89150600090a25050565b6000546001600160a01b031633148015906106bb57506008546001600160a01b03163314155b156106d95760405163ea8e4eb560e01b815260040160405180910390fd5b600081815260036020526040902060018101546001600160a01b03166107125760405163720caa4f60e01b815260040160405180910390fd5b600581015460ff1661073757604051634065aaf160e11b815260040160405180910390fd5b6005810154610100900460ff1615610762576040516346b8055b60e11b815260040160405180910390fd5b60058101805461ff00191661010017905560405182907f5d8d8e7ad8feb4bd333fe6788875531690f333312fc805e7520bdfd01384e28590600090a26107a782610e5c565b5050565b6107b3610e2f565b6107bb6110f3565b565b6008546001600160a01b031633146107e85760405163ea8e4eb560e01b815260040160405180910390fd5b6000828152600a60209081526040808320548084526003909252909120600101546001600160a01b031661082f5760405163720caa4f60e01b815260040160405180910390fd5b60008181526005602052604090205460ff161561085f57604051630d70a0e360e41b815260040160405180910390fd5b827f6b58f50ba647121ec500714ba063e916c8251da27ede7485971b6fe27f184c9e8360405161089191815260200190565b60405180910390a260008181526003602052604090206004015482106108ff57600081815260036020526040808220600501805461ff0019166101001790555182917f5d8d8e7ad8feb4bd333fe6788875531690f333312fc805e7520bdfd01384e28591a26108ff81610e5c565b50506000908152600a6020526040812055565b61091a610e2f565b6000811161095d5760405162461bcd60e51b815260206004820152600b60248201526a06d61785061796f75743d360ac1b60448201526064015b60405180910390fd5b600955565b61096a611145565b3460000361098b57604051637e1e0e5b60e01b815260040160405180910390fd5b816000036109ac5760405163373d696f60e11b815260040160405180910390fd5b6009548211156109cf57604051630820c43d60e11b815260040160405180910390fd5b600680546040805160e08101825282815233602080830182815234848601908152606085018a8152608086018a8152600160a08801818152600060c08a018181528c82526003808a528c83209b518c5597518b850180546001600160a01b0319166001600160a01b03909216919091179055955160028b01559351958901959095559051600480890191909155935160059097018054935161ffff1990941697151561ff001916979097176101009315159390930292909217909555928452815292822080548083018255908352928220909201839055835492939192610ab790849061138b565b909155505060075460408051630d0e30db60e41b815290516001600160a01b039092169163d0e30db0913491600480830192600092919082900301818588803b158015610b0357600080fd5b505af1158015610b17573d6000803e3d6000fd5b5050600754604051630fdfbe1f60e11b8152600481018890526001600160a01b039091169350631fbf7c3e92506024019050600060405180830381600087803b158015610b6357600080fd5b505af1158015610b77573d6000803e3d6000fd5b505060408051348152602081018790523393508492507f86175db98187e6ddfe37c7302752dae1b1287aa583f43b5b6c7038d991c8dc57910160405180910390a3505050565b610bc5610e2f565b6107bb6000611169565b610bd7610e2f565b6001600160a01b038116610bfe57604051639589a27d60e01b815260040160405180910390fd5b600880546001600160a01b0319166001600160a01b0392909216919091179055565b610c28610e2f565b6107bb6111b9565b60046020528160005260406000208181548110610c4c57600080fd5b90600052602060002001600091509150505481565b6001600160a01b038116600090815260046020526040812080546060928167ffffffffffffffff811115610c9757610c976113a4565b604051908082528060200260200182016040528015610d1557816020015b610d026040518060e001604052806000815260200160006001600160a01b031681526020016000815260200160008152602001600081526020016000151581526020016000151581525090565b815260200190600190039081610cb55790505b50905060005b82811015610de85760036000858381548110610d3957610d396113ba565b600091825260208083209091015483528281019390935260409182019020815160e0810183528154815260018201546001600160a01b03169381019390935260028101549183019190915260038101546060830152600481015460808301526005015460ff808216151560a084015261010090910416151560c08201528251839083908110610dca57610dca6113ba565b60200260200101819052508080610de0906113d0565b915050610d1b565b50949350505050565b610df9610e2f565b6001600160a01b038116610e2357604051631e4fbdf760e01b815260006004820152602401610954565b610e2c81611169565b50565b6000546001600160a01b031633146107bb5760405163118cdaa760e01b8152336004820152602401610954565b610e646111f6565b600081815260036020526040902060018101546001600160a01b0316610e9d5760405163720caa4f60e01b815260040160405180910390fd5b600581015460ff168015610eba57506005810154610100900460ff165b610ed757604051634065aaf160e11b815260040160405180910390fd5b60008281526005602052604090205460ff1615610f0757604051630d70a0e360e41b815260040160405180910390fd5b8060030154600760009054906101000a90046001600160a01b03166001600160a01b03166312065fe06040518163ffffffff1660e01b8152600401602060405180830381865afa158015610f5f573d6000803e3d6000fd5b505050506040513d601f19601f82011682018060405250810190610f8391906113e9565b1015610fa25760405163356680b760e01b815260040160405180910390fd5b6005818101805460ff199081169091556000848152602092909252604091829020805490911660011790556007546003830154915163bff8a36d60e01b815260048101929092526001600160a01b03169063bff8a36d90602401600060405180830381600087803b15801561101657600080fd5b505af115801561102a573d6000803e3d6000fd5b505060075460018401546003850154604051630ed1218b60e31b81526001600160a01b0392831660048201526024810191909152911692506376890c589150604401600060405180830381600087803b15801561108657600080fd5b505af115801561109a573d6000803e3d6000fd5b50505050600181015460038201546040519081526001600160a01b039091169083907fbeaa99d72a600712e4656a7da04b2cabe31fb50fbf8f5b5f96513b0a4f495c1a9060200160405180910390a350610e2c60018055565b6110fb611220565b6002805460ff191690557f5db9ee0a495bf2e6ff9c91a7834c1ba4fdd244a5e8aa4e537bd38aeae4b073aa335b6040516001600160a01b03909116815260200160405180910390a1565b60025460ff16156107bb5760405163d93c066560e01b815260040160405180910390fd5b600080546001600160a01b038381166001600160a01b0319831681178455604051919092169283917f8be0079c531659141344cd1fd0a4f28419497f9722a3daafe3b4186f6b6457e09190a35050565b6111c1611145565b6002805460ff191660011790557f62e78cea01bee320cd4e420270b5ea74000d11b0c9f74754ebdbfc544b05a2586111283390565b60026001540361121957604051633ee5aeb560e01b815260040160405180910390fd5b6002600155565b60025460ff166107bb57604051638dfc202b60e01b815260040160405180910390fd5b60006020828403121561125557600080fd5b5035919050565b6000806040838503121561126f57600080fd5b50508035926020909101359150565b80356001600160a01b038116811461129557600080fd5b919050565b6000602082840312156112ac57600080fd5b6112b58261127e565b9392505050565b600080604083850312156112cf57600080fd5b6112d88361127e565b946020939093013593505050565b602080825282518282018190526000919060409081850190868401855b8281101561136857815180518552868101516001600160a01b0316878601528581015186860152606080820151908601526080808201519086015260a08082015115159086015260c09081015115159085015260e09093019290850190600101611303565b5091979650505050505050565b634e487b7160e01b600052601160045260246000fd5b8082018082111561139e5761139e611375565b92915050565b634e487b7160e01b600052604160045260246000fd5b634e487b7160e01b600052603260045260246000fd5b6000600182016113e2576113e2611375565b5060010190565b6000602082840312156113fb57600080fd5b505191905056fea2646970667358221220df7ceecbe271bbc3f78b1d555a84652738b8dca9ef86e579dd52a3453c47a82364736f6c63430008140033",
  "linkReferences": {},
  "deployedLinkReferences": {}
}