{
  "_format": "hh-sol-artifact-1",
  "contractName": "MockOracle",
  "sourceName": "contracts/MockOracle.sol",
  "abi": [
    {
      "inputs": [
        {
          "internalType": "contract IPolicy",
          "name": "policyAddress",
          "type": "address"
        }
      ],
      "stateMutability": "nonpayable",
      "type": "constructor"
    },
    {
      "inputs": [
        {
          "internalType": "uint256",
          "name": "policyId",
          "type": "uint256"
        }
      ],
      "name": "fulfillTrigger",
      "outputs": [],
      "stateMutability": "nonpayable",
      "type": "function"
    },
    {
      "inputs": [],
      "name": "policy",
      "outputs": [
        {
          "internalType": "contract IPolicy",
          "name": "",
          "type": "address"
        }
      ],
      "stateMutability": "view",
      "type": "function"
    },
    {
      "inputs": [
        {
          "internalType": "contract IPolicy",
          "name": "policyAddress",
          "type": "address"
        }
      ],
      "name": "setPolicy",
      "outputs": [],
      "stateMutability": "nonpayable",
      "type": "function"
    }
  ],
  "bytecode": "0x608060405234801561001057600080fd5b5060405161022d38038061022d83398101604081905261002f91610054565b600080546001600160a01b0319166001600160a01b0392909216919091179055610084565b60006020828403121561006657600080fd5b81516001600160a01b038116811461007d57600080fd5b9392505050565b61019a806100936000396000f3fe608060405234801561001057600080fd5b50600436106100415760003560e01c80630505c8c9146100465780630f704e73146100755780637d4163d31461008a575b600080fd5b600054610059906001600160a01b031681565b6040516001600160a01b03909116815260200160405180910390f35b61008861008336600461011b565b6100ba565b005b610088610098366004610134565b600080546001600160a01b0319166001600160a01b0392909216919091179055565b60005460405163377e1cc960e01b8152600481018390526001600160a01b039091169063377e1cc990602401600060405180830381600087803b15801561010057600080fd5b505af1158015610114573d6000803e3d6000fd5b5050505050565b60006020828403121561012d57600080fd5b5035919050565b60006020828403121561014657600080fd5b81356001600160a01b038116811461015d57600080fd5b939250505056fea2646970667358221220d0b842fd98dd92bc1b77058a6bd1d9fa31b9f71a1c217fb2c998b08a20d9d48664736f6c63430008140033",
  "linkReferences": {},
  "deployedLinkReferences": {}
}